{
	"multisend2/FortMultisend.sol": {
		"FortMultisend": {
			"abi": [
				{
					"constant": false,
					"inputs": [
						{
							"name": "token",
							"type": "address"
						},
						{
							"name": "_contributors",
							"type": "address[]"
						},
						{
							"name": "_balances",
							"type": "uint256[]"
						}
					],
					"name": "multisendToken",
					"outputs": [],
					"payable": false,
					"stateMutability": "nonpayable",
					"type": "function"
				},
				{
					"constant": false,
					"inputs": [],
					"name": "setFee",
					"outputs": [],
					"payable": false,
					"stateMutability": "nonpayable",
					"type": "function"
				},
				{
					"constant": false,
					"inputs": [],
					"name": "claimOwnership",
					"outputs": [],
					"payable": false,
					"stateMutability": "nonpayable",
					"type": "function"
				},
				{
					"constant": true,
					"inputs": [],
					"name": "version",
					"outputs": [
						{
							"name": "",
							"type": "string"
						}
					],
					"payable": false,
					"stateMutability": "view",
					"type": "function"
				},
				{
					"constant": true,
					"inputs": [],
					"name": "implementation",
					"outputs": [
						{
							"name": "",
							"type": "address"
						}
					],
					"payable": false,
					"stateMutability": "view",
					"type": "function"
				},
				{
					"constant": false,
					"inputs": [],
					"name": "claimETH",
					"outputs": [],
					"payable": false,
					"stateMutability": "nonpayable",
					"type": "function"
				},
				{
					"constant": false,
					"inputs": [],
					"name": "unsetFee",
					"outputs": [],
					"payable": false,
					"stateMutability": "nonpayable",
					"type": "function"
				},
				{
					"constant": true,
					"inputs": [],
					"name": "upgradeabilityOwner",
					"outputs": [
						{
							"name": "",
							"type": "address"
						}
					],
					"payable": false,
					"stateMutability": "view",
					"type": "function"
				},
				{
					"constant": true,
					"inputs": [],
					"name": "owner",
					"outputs": [
						{
							"name": "",
							"type": "address"
						}
					],
					"payable": false,
					"stateMutability": "view",
					"type": "function"
				},
				{
					"constant": false,
					"inputs": [
						{
							"name": "_contributors",
							"type": "address[]"
						},
						{
							"name": "_balances",
							"type": "uint256[]"
						}
					],
					"name": "multisendEther",
					"outputs": [],
					"payable": true,
					"stateMutability": "payable",
					"type": "function"
				},
				{
					"constant": true,
					"inputs": [],
					"name": "arrayLimit",
					"outputs": [
						{
							"name": "",
							"type": "uint256"
						}
					],
					"payable": false,
					"stateMutability": "view",
					"type": "function"
				},
				{
					"constant": true,
					"inputs": [
						{
							"name": "customer",
							"type": "address"
						}
					],
					"name": "txCount",
					"outputs": [
						{
							"name": "",
							"type": "uint256"
						}
					],
					"payable": false,
					"stateMutability": "view",
					"type": "function"
				},
				{
					"constant": true,
					"inputs": [],
					"name": "fee",
					"outputs": [
						{
							"name": "",
							"type": "uint256"
						}
					],
					"payable": false,
					"stateMutability": "view",
					"type": "function"
				},
				{
					"constant": false,
					"inputs": [
						{
							"name": "_token",
							"type": "address"
						}
					],
					"name": "claimTokens",
					"outputs": [],
					"payable": false,
					"stateMutability": "nonpayable",
					"type": "function"
				},
				{
					"constant": true,
					"inputs": [],
					"name": "pendingOwner",
					"outputs": [
						{
							"name": "",
							"type": "address"
						}
					],
					"payable": false,
					"stateMutability": "view",
					"type": "function"
				},
				{
					"constant": false,
					"inputs": [
						{
							"name": "_newLimit",
							"type": "uint256"
						}
					],
					"name": "setArrayLimit",
					"outputs": [],
					"payable": false,
					"stateMutability": "nonpayable",
					"type": "function"
				},
				{
					"constant": false,
					"inputs": [
						{
							"name": "newOwner",
							"type": "address"
						}
					],
					"name": "transferOwnership",
					"outputs": [],
					"payable": false,
					"stateMutability": "nonpayable",
					"type": "function"
				},
				{
					"inputs": [],
					"payable": false,
					"stateMutability": "nonpayable",
					"type": "constructor"
				},
				{
					"payable": true,
					"stateMutability": "payable",
					"type": "fallback"
				},
				{
					"anonymous": false,
					"inputs": [
						{
							"indexed": false,
							"name": "total",
							"type": "uint256"
						},
						{
							"indexed": false,
							"name": "tokenAddress",
							"type": "address"
						}
					],
					"name": "Multisended",
					"type": "event"
				},
				{
					"anonymous": false,
					"inputs": [
						{
							"indexed": false,
							"name": "token",
							"type": "address"
						},
						{
							"indexed": false,
							"name": "owner",
							"type": "address"
						},
						{
							"indexed": false,
							"name": "balance",
							"type": "uint256"
						}
					],
					"name": "ClaimedTokens",
					"type": "event"
				},
				{
					"anonymous": false,
					"inputs": [
						{
							"indexed": false,
							"name": "owner",
							"type": "address"
						},
						{
							"indexed": false,
							"name": "balance",
							"type": "uint256"
						}
					],
					"name": "ClaimedETH",
					"type": "event"
				},
				{
					"anonymous": false,
					"inputs": [
						{
							"indexed": false,
							"name": "previousOwner",
							"type": "address"
						},
						{
							"indexed": false,
							"name": "newOwner",
							"type": "address"
						}
					],
					"name": "OwnershipTransferred",
					"type": "event"
				}
			],
			"devdoc": {
				"methods": {
					"claimOwnership()": {
						"details": "Allows the pendingOwner address to finalize the transfer."
					},
					"implementation()": {
						"details": "Tells the address of the current implementation",
						"return": "address of the current implementation"
					},
					"owner()": {
						"details": "Tells the address of the owner",
						"return": "the address of the owner"
					},
					"transferOwnership(address)": {
						"details": "Allows the current owner to set the pendingOwner address.",
						"params": {
							"newOwner": "The address to transfer ownership to."
						}
					},
					"upgradeabilityOwner()": {
						"details": "Tells the address of the owner",
						"return": "the address of the owner"
					},
					"version()": {
						"details": "Tells the version name of the current implementation",
						"return": "string representing the name of the current version"
					}
				}
			},
			"evm": {
				"assembly": "    /* \"multisend2/FortMultisend.sol\":1094:4132  contract FortMultisend is OwnedUpgradeabilityStorage, Claimable {... */\n  mstore(0x40, 0x80)\n    /* \"multisend2/FortMultisend.sol\":1443:1614  constructor() public {... */\n  callvalue\n    /* \"--CODEGEN--\":8:17   */\n  dup1\n    /* \"--CODEGEN--\":5:7   */\n  iszero\n  tag_1\n  jumpi\n    /* \"--CODEGEN--\":30:31   */\n  0x0\n    /* \"--CODEGEN--\":27:28   */\n  dup1\n    /* \"--CODEGEN--\":20:32   */\n  revert\n    /* \"--CODEGEN--\":5:7   */\ntag_1:\n    /* \"multisend2/FortMultisend.sol\":1443:1614  constructor() public {... */\n  pop\n    /* \"multisend2/FortMultisend.sol\":1474:1494  setOwner(msg.sender) */\n  tag_4\n    /* \"multisend2/FortMultisend.sol\":1483:1493  msg.sender */\n  caller\n    /* \"multisend2/FortMultisend.sol\":1474:1482  setOwner */\n  mul(0x100000000, tag_5)\n    /* \"multisend2/FortMultisend.sol\":1474:1494  setOwner(msg.sender) */\n  0x100000000\n  swap1\n  div\n  jump\t// in\ntag_4:\n    /* \"multisend2/FortMultisend.sol\":1504:1521  setArrayLimit(91) */\n  tag_6\n    /* \"multisend2/FortMultisend.sol\":1518:1520  91 */\n  0x5b\n    /* \"multisend2/FortMultisend.sol\":1504:1517  setArrayLimit */\n  mul(0x100000000, tag_7)\n    /* \"multisend2/FortMultisend.sol\":1504:1521  setArrayLimit(91) */\n  0x100000000\n  swap1\n  div\n  jump\t// in\ntag_6:\n    /* \"multisend2/FortMultisend.sol\":1537:1538  0 */\n  0x0\n    /* \"multisend2/FortMultisend.sol\":1531:1534  fee */\n  0x9\n    /* \"multisend2/FortMultisend.sol\":1531:1538  fee = 0 */\n  dup2\n  swap1\n  sstore\n  pop\n    /* \"multisend2/FortMultisend.sol\":1603:1607  true */\n  0x1\n    /* \"multisend2/FortMultisend.sol\":1548:1559  boolStorage */\n  0x7\n    /* \"multisend2/FortMultisend.sol\":1548:1600  boolStorage[keccak256(\"rs_multisender_initialized\")] */\n  0x0\n    /* \"multisend2/FortMultisend.sol\":1560:1599  keccak256(\"rs_multisender_initialized\") */\n  mload(0x40)\n  dup1\n  dup1\n  0x72735f6d756c746973656e6465725f696e697469616c697a6564000000000000\n  dup2\n  mstore\n  pop\n  0x1a\n  add\n  swap1\n  pop\n  mload(0x40)\n  dup1\n  swap2\n  sub\n  swap1\n  keccak256\n    /* \"multisend2/FortMultisend.sol\":1548:1600  boolStorage[keccak256(\"rs_multisender_initialized\")] */\n  not(0x0)\n  and\n  not(0x0)\n  and\n  dup2\n  mstore\n  0x20\n  add\n  swap1\n  dup2\n  mstore\n  0x20\n  add\n  0x0\n  keccak256\n  0x0\n    /* \"multisend2/FortMultisend.sol\":1548:1607  boolStorage[keccak256(\"rs_multisender_initialized\")] = true */\n  0x100\n  exp\n  dup2\n  sload\n  dup2\n  0xff\n  mul\n  not\n  and\n  swap1\n  dup4\n  iszero\n  iszero\n  mul\n  or\n  swap1\n  sstore\n  pop\n    /* \"multisend2/FortMultisend.sol\":1094:4132  contract FortMultisend is OwnedUpgradeabilityStorage, Claimable {... */\n  jump(tag_8)\n    /* \"multisend2/Ownable.sol\":1306:1467  function setOwner(address newOwner) internal {... */\ntag_5:\n    /* \"multisend2/Ownable.sol\":1366:1405  OwnershipTransferred(owner(), newOwner) */\n  0x8be0079c531659141344cd1fd0a4f28419497f9722a3daafe3b4186f6b6457e0\n    /* \"multisend2/Ownable.sol\":1387:1394  owner() */\n  tag_10\n    /* \"multisend2/Ownable.sol\":1387:1392  owner */\n  mul(0x100000000, tag_11)\n    /* \"multisend2/Ownable.sol\":1387:1394  owner() */\n  0x100000000\n  swap1\n  div\n  jump\t// in\ntag_10:\n    /* \"multisend2/Ownable.sol\":1396:1404  newOwner */\n  dup3\n    /* \"multisend2/Ownable.sol\":1366:1405  OwnershipTransferred(owner(), newOwner) */\n  mload(0x40)\n  dup1\n  dup4\n  0xffffffffffffffffffffffffffffffffffffffff\n  and\n  0xffffffffffffffffffffffffffffffffffffffff\n  and\n  dup2\n  mstore\n  0x20\n  add\n  dup3\n  0xffffffffffffffffffffffffffffffffffffffff\n  and\n  0xffffffffffffffffffffffffffffffffffffffff\n  and\n  dup2\n  mstore\n  0x20\n  add\n  swap3\n  pop\n  pop\n  pop\n  mload(0x40)\n  dup1\n  swap2\n  sub\n  swap1\n  log1\n    /* \"multisend2/Ownable.sol\":1452:1460  newOwner */\n  dup1\n    /* \"multisend2/Ownable.sol\":1415:1429  addressStorage */\n  0x5\n    /* \"multisend2/Ownable.sol\":1415:1449  addressStorage[keccak256(\"owner\")] */\n  0x0\n    /* \"multisend2/Ownable.sol\":1430:1448  keccak256(\"owner\") */\n  mload(0x40)\n  dup1\n  dup1\n  0x6f776e6572000000000000000000000000000000000000000000000000000000\n  dup2\n  mstore\n  pop\n  0x5\n  add\n  swap1\n  pop\n  mload(0x40)\n  dup1\n  swap2\n  sub\n  swap1\n  keccak256\n    /* \"multisend2/Ownable.sol\":1415:1449  addressStorage[keccak256(\"owner\")] */\n  not(0x0)\n  and\n  not(0x0)\n  and\n  dup2\n  mstore\n  0x20\n  add\n  swap1\n  dup2\n  mstore\n  0x20\n  add\n  0x0\n  keccak256\n  0x0\n    /* \"multisend2/Ownable.sol\":1415:1460  addressStorage[keccak256(\"owner\")] = newOwner */\n  0x100\n  exp\n  dup2\n  sload\n  dup2\n  0xffffffffffffffffffffffffffffffffffffffff\n  mul\n  not\n  and\n  swap1\n  dup4\n  0xffffffffffffffffffffffffffffffffffffffff\n  and\n  mul\n  or\n  swap1\n  sstore\n  pop\n    /* \"multisend2/Ownable.sol\":1306:1467  function setOwner(address newOwner) internal {... */\n  pop\n  jump\t// out\n    /* \"multisend2/FortMultisend.sol\":1876:2033  function setArrayLimit(uint256 _newLimit) public onlyOwner {... */\ntag_7:\n    /* \"multisend2/Ownable.sol\":710:717  owner() */\n  tag_13\n    /* \"multisend2/Ownable.sol\":710:715  owner */\n  mul(0x100000000, tag_11)\n    /* \"multisend2/Ownable.sol\":710:717  owner() */\n  0x100000000\n  swap1\n  div\n  jump\t// in\ntag_13:\n    /* \"multisend2/Ownable.sol\":696:717  msg.sender == owner() */\n  0xffffffffffffffffffffffffffffffffffffffff\n  and\n    /* \"multisend2/Ownable.sol\":696:706  msg.sender */\n  caller\n    /* \"multisend2/Ownable.sol\":696:717  msg.sender == owner() */\n  0xffffffffffffffffffffffffffffffffffffffff\n  and\n  eq\n    /* \"multisend2/Ownable.sol\":688:718  require(msg.sender == owner()) */\n  iszero\n  iszero\n  tag_14\n  jumpi\n  0x0\n  dup1\n  revert\ntag_14:\n    /* \"multisend2/FortMultisend.sol\":1966:1967  0 */\n  0x0\n    /* \"multisend2/FortMultisend.sol\":1953:1962  _newLimit */\n  dup2\n    /* \"multisend2/FortMultisend.sol\":1953:1967  _newLimit != 0 */\n  eq\n  iszero\n    /* \"multisend2/FortMultisend.sol\":1945:1968  require(_newLimit != 0) */\n  iszero\n  iszero\n  tag_16\n  jumpi\n  0x0\n  dup1\n  revert\ntag_16:\n    /* \"multisend2/FortMultisend.sol\":2017:2026  _newLimit */\n  dup1\n    /* \"multisend2/FortMultisend.sol\":1978:1989  uintStorage */\n  0x3\n    /* \"multisend2/FortMultisend.sol\":1978:2014  uintStorage[keccak256(\"arrayLimit\")] */\n  0x0\n    /* \"multisend2/FortMultisend.sol\":1990:2013  keccak256(\"arrayLimit\") */\n  mload(0x40)\n  dup1\n  dup1\n  0x61727261794c696d697400000000000000000000000000000000000000000000\n  dup2\n  mstore\n  pop\n  0xa\n  add\n  swap1\n  pop\n  mload(0x40)\n  dup1\n  swap2\n  sub\n  swap1\n  keccak256\n    /* \"multisend2/FortMultisend.sol\":1978:2014  uintStorage[keccak256(\"arrayLimit\")] */\n  not(0x0)\n  and\n  not(0x0)\n  and\n  dup2\n  mstore\n  0x20\n  add\n  swap1\n  dup2\n  mstore\n  0x20\n  add\n  0x0\n  keccak256\n    /* \"multisend2/FortMultisend.sol\":1978:2026  uintStorage[keccak256(\"arrayLimit\")] = _newLimit */\n  dup2\n  swap1\n  sstore\n  pop\n    /* \"multisend2/FortMultisend.sol\":1876:2033  function setArrayLimit(uint256 _newLimit) public onlyOwner {... */\n  pop\n  jump\t// out\n    /* \"multisend2/Ownable.sol\":838:943  function owner() public view returns (address) {... */\ntag_11:\n    /* \"multisend2/Ownable.sol\":876:883  address */\n  0x0\n    /* \"multisend2/Ownable.sol\":902:916  addressStorage */\n  0x5\n    /* \"multisend2/Ownable.sol\":902:936  addressStorage[keccak256(\"owner\")] */\n  0x0\n    /* \"multisend2/Ownable.sol\":917:935  keccak256(\"owner\") */\n  mload(0x40)\n  dup1\n  dup1\n  0x6f776e6572000000000000000000000000000000000000000000000000000000\n  dup2\n  mstore\n  pop\n  0x5\n  add\n  swap1\n  pop\n  mload(0x40)\n  dup1\n  swap2\n  sub\n  swap1\n  keccak256\n    /* \"multisend2/Ownable.sol\":902:936  addressStorage[keccak256(\"owner\")] */\n  not(0x0)\n  and\n  not(0x0)\n  and\n  dup2\n  mstore\n  0x20\n  add\n  swap1\n  dup2\n  mstore\n  0x20\n  add\n  0x0\n  keccak256\n  0x0\n  swap1\n  sload\n  swap1\n  0x100\n  exp\n  swap1\n  div\n  0xffffffffffffffffffffffffffffffffffffffff\n  and\n    /* \"multisend2/Ownable.sol\":895:936  return addressStorage[keccak256(\"owner\")] */\n  swap1\n  pop\n    /* \"multisend2/Ownable.sol\":838:943  function owner() public view returns (address) {... */\n  swap1\n  jump\t// out\n    /* \"multisend2/FortMultisend.sol\":1094:4132  contract FortMultisend is OwnedUpgradeabilityStorage, Claimable {... */\ntag_8:\n  dataSize(sub_0)\n  dup1\n  dataOffset(sub_0)\n  0x0\n  codecopy\n  0x0\n  return\nstop\n\nsub_0: assembly {\n        /* \"multisend2/FortMultisend.sol\":1094:4132  contract FortMultisend is OwnedUpgradeabilityStorage, Claimable {... */\n      mstore(0x40, 0x80)\n      jumpi(tag_1, lt(calldatasize, 0x4))\n      calldataload(0x0)\n      0x100000000000000000000000000000000000000000000000000000000\n      swap1\n      div\n      0xffffffff\n      and\n      dup1\n      0xb66f3f5\n      eq\n      tag_2\n      jumpi\n      dup1\n      0x2ded3227\n      eq\n      tag_3\n      jumpi\n      dup1\n      0x4e71e0c8\n      eq\n      tag_4\n      jumpi\n      dup1\n      0x54fd4d50\n      eq\n      tag_5\n      jumpi\n      dup1\n      0x5c60da1b\n      eq\n      tag_6\n      jumpi\n      dup1\n      0x67272999\n      eq\n      tag_7\n      jumpi\n      dup1\n      0x6ab35b2e\n      eq\n      tag_8\n      jumpi\n      dup1\n      0x6fde8202\n      eq\n      tag_9\n      jumpi\n      dup1\n      0x8da5cb5b\n      eq\n      tag_10\n      jumpi\n      dup1\n      0xab883d28\n      eq\n      tag_11\n      jumpi\n      dup1\n      0xb4ae641c\n      eq\n      tag_12\n      jumpi\n      dup1\n      0xc1258f69\n      eq\n      tag_13\n      jumpi\n      dup1\n      0xddca3f43\n      eq\n      tag_14\n      jumpi\n      dup1\n      0xdf8de3e7\n      eq\n      tag_15\n      jumpi\n      dup1\n      0xe30c3978\n      eq\n      tag_16\n      jumpi\n      dup1\n      0xee8a0a30\n      eq\n      tag_17\n      jumpi\n      dup1\n      0xf2fde38b\n      eq\n      tag_18\n      jumpi\n    tag_1:\n      stop\n        /* \"multisend2/FortMultisend.sol\":2171:3009  function multisendToken(... */\n    tag_2:\n      callvalue\n        /* \"--CODEGEN--\":8:17   */\n      dup1\n        /* \"--CODEGEN--\":5:7   */\n      iszero\n      tag_21\n      jumpi\n        /* \"--CODEGEN--\":30:31   */\n      0x0\n        /* \"--CODEGEN--\":27:28   */\n      dup1\n        /* \"--CODEGEN--\":20:32   */\n      revert\n        /* \"--CODEGEN--\":5:7   */\n    tag_21:\n        /* \"multisend2/FortMultisend.sol\":2171:3009  function multisendToken(... */\n      pop\n      tag_22\n      0x4\n      dup1\n      calldatasize\n      sub\n      dup2\n      add\n      swap1\n      dup1\n      dup1\n      calldataload\n      0xffffffffffffffffffffffffffffffffffffffff\n      and\n      swap1\n      0x20\n      add\n      swap1\n      swap3\n      swap2\n      swap1\n      dup1\n      calldataload\n      swap1\n      0x20\n      add\n      swap1\n      dup3\n      add\n      dup1\n      calldataload\n      swap1\n      0x20\n      add\n      swap1\n      dup1\n      dup1\n      0x20\n      mul\n      0x20\n      add\n      mload(0x40)\n      swap1\n      dup2\n      add\n      0x40\n      mstore\n      dup1\n      swap4\n      swap3\n      swap2\n      swap1\n      dup2\n      dup2\n      mstore\n      0x20\n      add\n      dup4\n      dup4\n      0x20\n      mul\n      dup1\n      dup3\n      dup5\n      calldatacopy\n      dup3\n      add\n      swap2\n      pop\n      pop\n      pop\n      pop\n      pop\n      pop\n      swap2\n      swap3\n      swap2\n      swap3\n      swap1\n      dup1\n      calldataload\n      swap1\n      0x20\n      add\n      swap1\n      dup3\n      add\n      dup1\n      calldataload\n      swap1\n      0x20\n      add\n      swap1\n      dup1\n      dup1\n      0x20\n      mul\n      0x20\n      add\n      mload(0x40)\n      swap1\n      dup2\n      add\n      0x40\n      mstore\n      dup1\n      swap4\n      swap3\n      swap2\n      swap1\n      dup2\n      dup2\n      mstore\n      0x20\n      add\n      dup4\n      dup4\n      0x20\n      mul\n      dup1\n      dup3\n      dup5\n      calldatacopy\n      dup3\n      add\n      swap2\n      pop\n      pop\n      pop\n      pop\n      pop\n      pop\n      swap2\n      swap3\n      swap2\n      swap3\n      swap1\n      pop\n      pop\n      pop\n      jump(tag_23)\n    tag_22:\n      stop\n        /* \"multisend2/FortMultisend.sol\":2039:2098  function setFee() public onlyOwner {... */\n    tag_3:\n      callvalue\n        /* \"--CODEGEN--\":8:17   */\n      dup1\n        /* \"--CODEGEN--\":5:7   */\n      iszero\n      tag_24\n      jumpi\n        /* \"--CODEGEN--\":30:31   */\n      0x0\n        /* \"--CODEGEN--\":27:28   */\n      dup1\n        /* \"--CODEGEN--\":20:32   */\n      revert\n        /* \"--CODEGEN--\":5:7   */\n    tag_24:\n        /* \"multisend2/FortMultisend.sol\":2039:2098  function setFee() public onlyOwner {... */\n      pop\n      tag_25\n      jump(tag_26)\n    tag_25:\n      stop\n        /* \"multisend2/Claimable.sol\":1114:1383  function claimOwnership() public onlyPendingOwner {... */\n    tag_4:\n      callvalue\n        /* \"--CODEGEN--\":8:17   */\n      dup1\n        /* \"--CODEGEN--\":5:7   */\n      iszero\n      tag_27\n      jumpi\n        /* \"--CODEGEN--\":30:31   */\n      0x0\n        /* \"--CODEGEN--\":27:28   */\n      dup1\n        /* \"--CODEGEN--\":20:32   */\n      revert\n        /* \"--CODEGEN--\":5:7   */\n    tag_27:\n        /* \"multisend2/Claimable.sol\":1114:1383  function claimOwnership() public onlyPendingOwner {... */\n      pop\n      tag_28\n      jump(tag_29)\n    tag_28:\n      stop\n        /* \"multisend2/UpgradeabilityStorage.sol\":598:678  function version() public view returns (string) {... */\n    tag_5:\n      callvalue\n        /* \"--CODEGEN--\":8:17   */\n      dup1\n        /* \"--CODEGEN--\":5:7   */\n      iszero\n      tag_30\n      jumpi\n        /* \"--CODEGEN--\":30:31   */\n      0x0\n        /* \"--CODEGEN--\":27:28   */\n      dup1\n        /* \"--CODEGEN--\":20:32   */\n      revert\n        /* \"--CODEGEN--\":5:7   */\n    tag_30:\n        /* \"multisend2/UpgradeabilityStorage.sol\":598:678  function version() public view returns (string) {... */\n      pop\n      tag_31\n      jump(tag_32)\n    tag_31:\n      mload(0x40)\n      dup1\n      dup1\n      0x20\n      add\n      dup3\n      dup2\n      sub\n      dup3\n      mstore\n      dup4\n      dup2\n      dup2\n      mload\n      dup2\n      mstore\n      0x20\n      add\n      swap2\n      pop\n      dup1\n      mload\n      swap1\n      0x20\n      add\n      swap1\n      dup1\n      dup4\n      dup4\n        /* \"--CODEGEN--\":23:24   */\n      0x0\n        /* \"--CODEGEN--\":8:108   */\n    tag_33:\n        /* \"--CODEGEN--\":33:36   */\n      dup4\n        /* \"--CODEGEN--\":30:31   */\n      dup2\n        /* \"--CODEGEN--\":27:37   */\n      lt\n        /* \"--CODEGEN--\":8:108   */\n      iszero\n      tag_34\n      jumpi\n        /* \"--CODEGEN--\":99:100   */\n      dup1\n        /* \"--CODEGEN--\":94:97   */\n      dup3\n        /* \"--CODEGEN--\":90:101   */\n      add\n        /* \"--CODEGEN--\":84:102   */\n      mload\n        /* \"--CODEGEN--\":80:81   */\n      dup2\n        /* \"--CODEGEN--\":75:78   */\n      dup5\n        /* \"--CODEGEN--\":71:82   */\n      add\n        /* \"--CODEGEN--\":64:103   */\n      mstore\n        /* \"--CODEGEN--\":52:54   */\n      0x20\n        /* \"--CODEGEN--\":49:50   */\n      dup2\n        /* \"--CODEGEN--\":45:55   */\n      add\n        /* \"--CODEGEN--\":40:55   */\n      swap1\n      pop\n        /* \"--CODEGEN--\":8:108   */\n      jump(tag_33)\n    tag_34:\n        /* \"--CODEGEN--\":12:26   */\n      pop\n        /* \"multisend2/UpgradeabilityStorage.sol\":598:678  function version() public view returns (string) {... */\n      pop\n      pop\n      pop\n      swap1\n      pop\n      swap1\n      dup2\n      add\n      swap1\n      0x1f\n      and\n      dup1\n      iszero\n      tag_36\n      jumpi\n      dup1\n      dup3\n      sub\n      dup1\n      mload\n      0x1\n      dup4\n      0x20\n      sub\n      0x100\n      exp\n      sub\n      not\n      and\n      dup2\n      mstore\n      0x20\n      add\n      swap2\n      pop\n    tag_36:\n      pop\n      swap3\n      pop\n      pop\n      pop\n      mload(0x40)\n      dup1\n      swap2\n      sub\n      swap1\n      return\n        /* \"multisend2/UpgradeabilityStorage.sol\":810:905  function implementation() public view returns (address) {... */\n    tag_6:\n      callvalue\n        /* \"--CODEGEN--\":8:17   */\n      dup1\n        /* \"--CODEGEN--\":5:7   */\n      iszero\n      tag_37\n      jumpi\n        /* \"--CODEGEN--\":30:31   */\n      0x0\n        /* \"--CODEGEN--\":27:28   */\n      dup1\n        /* \"--CODEGEN--\":20:32   */\n      revert\n        /* \"--CODEGEN--\":5:7   */\n    tag_37:\n        /* \"multisend2/UpgradeabilityStorage.sol\":810:905  function implementation() public view returns (address) {... */\n      pop\n      tag_38\n      jump(tag_39)\n    tag_38:\n      mload(0x40)\n      dup1\n      dup3\n      0xffffffffffffffffffffffffffffffffffffffff\n      and\n      0xffffffffffffffffffffffffffffffffffffffff\n      and\n      dup2\n      mstore\n      0x20\n      add\n      swap2\n      pop\n      pop\n      mload(0x40)\n      dup1\n      swap2\n      sub\n      swap1\n      return\n        /* \"multisend2/FortMultisend.sol\":3839:3989  function claimETH() public onlyOwner {... */\n    tag_7:\n      callvalue\n        /* \"--CODEGEN--\":8:17   */\n      dup1\n        /* \"--CODEGEN--\":5:7   */\n      iszero\n      tag_40\n      jumpi\n        /* \"--CODEGEN--\":30:31   */\n      0x0\n        /* \"--CODEGEN--\":27:28   */\n      dup1\n        /* \"--CODEGEN--\":20:32   */\n      revert\n        /* \"--CODEGEN--\":5:7   */\n    tag_40:\n        /* \"multisend2/FortMultisend.sol\":3839:3989  function claimETH() public onlyOwner {... */\n      pop\n      tag_41\n      jump(tag_42)\n    tag_41:\n      stop\n        /* \"multisend2/FortMultisend.sol\":2104:2165  function unsetFee() public onlyOwner {... */\n    tag_8:\n      callvalue\n        /* \"--CODEGEN--\":8:17   */\n      dup1\n        /* \"--CODEGEN--\":5:7   */\n      iszero\n      tag_43\n      jumpi\n        /* \"--CODEGEN--\":30:31   */\n      0x0\n        /* \"--CODEGEN--\":27:28   */\n      dup1\n        /* \"--CODEGEN--\":20:32   */\n      revert\n        /* \"--CODEGEN--\":5:7   */\n    tag_43:\n        /* \"multisend2/FortMultisend.sol\":2104:2165  function unsetFee() public onlyOwner {... */\n      pop\n      tag_44\n      jump(tag_45)\n    tag_44:\n      stop\n        /* \"multisend2/UpgradeabilityOwnerStorage.sol\":429:534  function upgradeabilityOwner() public view returns (address) {... */\n    tag_9:\n      callvalue\n        /* \"--CODEGEN--\":8:17   */\n      dup1\n        /* \"--CODEGEN--\":5:7   */\n      iszero\n      tag_46\n      jumpi\n        /* \"--CODEGEN--\":30:31   */\n      0x0\n        /* \"--CODEGEN--\":27:28   */\n      dup1\n        /* \"--CODEGEN--\":20:32   */\n      revert\n        /* \"--CODEGEN--\":5:7   */\n    tag_46:\n        /* \"multisend2/UpgradeabilityOwnerStorage.sol\":429:534  function upgradeabilityOwner() public view returns (address) {... */\n      pop\n      tag_47\n      jump(tag_48)\n    tag_47:\n      mload(0x40)\n      dup1\n      dup3\n      0xffffffffffffffffffffffffffffffffffffffff\n      and\n      0xffffffffffffffffffffffffffffffffffffffff\n      and\n      dup2\n      mstore\n      0x20\n      add\n      swap2\n      pop\n      pop\n      mload(0x40)\n      dup1\n      swap2\n      sub\n      swap1\n      return\n        /* \"multisend2/Ownable.sol\":838:943  function owner() public view returns (address) {... */\n    tag_10:\n      callvalue\n        /* \"--CODEGEN--\":8:17   */\n      dup1\n        /* \"--CODEGEN--\":5:7   */\n      iszero\n      tag_49\n      jumpi\n        /* \"--CODEGEN--\":30:31   */\n      0x0\n        /* \"--CODEGEN--\":27:28   */\n      dup1\n        /* \"--CODEGEN--\":20:32   */\n      revert\n        /* \"--CODEGEN--\":5:7   */\n    tag_49:\n        /* \"multisend2/Ownable.sol\":838:943  function owner() public view returns (address) {... */\n      pop\n      tag_50\n      jump(tag_51)\n    tag_50:\n      mload(0x40)\n      dup1\n      dup3\n      0xffffffffffffffffffffffffffffffffffffffff\n      and\n      0xffffffffffffffffffffffffffffffffffffffff\n      and\n      dup2\n      mstore\n      0x20\n      add\n      swap2\n      pop\n      pop\n      mload(0x40)\n      dup1\n      swap2\n      sub\n      swap1\n      return\n        /* \"multisend2/FortMultisend.sol\":3015:3569  function multisendEther(address[] _contributors, uint256[] _balances)... */\n    tag_11:\n      tag_52\n      0x4\n      dup1\n      calldatasize\n      sub\n      dup2\n      add\n      swap1\n      dup1\n      dup1\n      calldataload\n      swap1\n      0x20\n      add\n      swap1\n      dup3\n      add\n      dup1\n      calldataload\n      swap1\n      0x20\n      add\n      swap1\n      dup1\n      dup1\n      0x20\n      mul\n      0x20\n      add\n      mload(0x40)\n      swap1\n      dup2\n      add\n      0x40\n      mstore\n      dup1\n      swap4\n      swap3\n      swap2\n      swap1\n      dup2\n      dup2\n      mstore\n      0x20\n      add\n      dup4\n      dup4\n      0x20\n      mul\n      dup1\n      dup3\n      dup5\n      calldatacopy\n      dup3\n      add\n      swap2\n      pop\n      pop\n      pop\n      pop\n      pop\n      pop\n      swap2\n      swap3\n      swap2\n      swap3\n      swap1\n      dup1\n      calldataload\n      swap1\n      0x20\n      add\n      swap1\n      dup3\n      add\n      dup1\n      calldataload\n      swap1\n      0x20\n      add\n      swap1\n      dup1\n      dup1\n      0x20\n      mul\n      0x20\n      add\n      mload(0x40)\n      swap1\n      dup2\n      add\n      0x40\n      mstore\n      dup1\n      swap4\n      swap3\n      swap2\n      swap1\n      dup2\n      dup2\n      mstore\n      0x20\n      add\n      dup4\n      dup4\n      0x20\n      mul\n      dup1\n      dup3\n      dup5\n      calldatacopy\n      dup3\n      add\n      swap2\n      pop\n      pop\n      pop\n      pop\n      pop\n      pop\n      swap2\n      swap3\n      swap2\n      swap3\n      swap1\n      pop\n      pop\n      pop\n      jump(tag_53)\n    tag_52:\n      stop\n        /* \"multisend2/FortMultisend.sol\":1758:1870  function arrayLimit() public view returns (uint256) {... */\n    tag_12:\n      callvalue\n        /* \"--CODEGEN--\":8:17   */\n      dup1\n        /* \"--CODEGEN--\":5:7   */\n      iszero\n      tag_54\n      jumpi\n        /* \"--CODEGEN--\":30:31   */\n      0x0\n        /* \"--CODEGEN--\":27:28   */\n      dup1\n        /* \"--CODEGEN--\":20:32   */\n      revert\n        /* \"--CODEGEN--\":5:7   */\n    tag_54:\n        /* \"multisend2/FortMultisend.sol\":1758:1870  function arrayLimit() public view returns (uint256) {... */\n      pop\n      tag_55\n      jump(tag_56)\n    tag_55:\n      mload(0x40)\n      dup1\n      dup3\n      dup2\n      mstore\n      0x20\n      add\n      swap2\n      pop\n      pop\n      mload(0x40)\n      dup1\n      swap2\n      sub\n      swap1\n      return\n        /* \"multisend2/FortMultisend.sol\":1620:1752  function txCount(address customer) public view returns (uint256) {... */\n    tag_13:\n      callvalue\n        /* \"--CODEGEN--\":8:17   */\n      dup1\n        /* \"--CODEGEN--\":5:7   */\n      iszero\n      tag_57\n      jumpi\n        /* \"--CODEGEN--\":30:31   */\n      0x0\n        /* \"--CODEGEN--\":27:28   */\n      dup1\n        /* \"--CODEGEN--\":20:32   */\n      revert\n        /* \"--CODEGEN--\":5:7   */\n    tag_57:\n        /* \"multisend2/FortMultisend.sol\":1620:1752  function txCount(address customer) public view returns (uint256) {... */\n      pop\n      tag_58\n      0x4\n      dup1\n      calldatasize\n      sub\n      dup2\n      add\n      swap1\n      dup1\n      dup1\n      calldataload\n      0xffffffffffffffffffffffffffffffffffffffff\n      and\n      swap1\n      0x20\n      add\n      swap1\n      swap3\n      swap2\n      swap1\n      pop\n      pop\n      pop\n      jump(tag_59)\n    tag_58:\n      mload(0x40)\n      dup1\n      dup3\n      dup2\n      mstore\n      0x20\n      add\n      swap2\n      pop\n      pop\n      mload(0x40)\n      dup1\n      swap2\n      sub\n      swap1\n      return\n        /* \"multisend2/FortMultisend.sol\":1384:1402  uint256 public fee */\n    tag_14:\n      callvalue\n        /* \"--CODEGEN--\":8:17   */\n      dup1\n        /* \"--CODEGEN--\":5:7   */\n      iszero\n      tag_60\n      jumpi\n        /* \"--CODEGEN--\":30:31   */\n      0x0\n        /* \"--CODEGEN--\":27:28   */\n      dup1\n        /* \"--CODEGEN--\":20:32   */\n      revert\n        /* \"--CODEGEN--\":5:7   */\n    tag_60:\n        /* \"multisend2/FortMultisend.sol\":1384:1402  uint256 public fee */\n      pop\n      tag_61\n      jump(tag_62)\n    tag_61:\n      mload(0x40)\n      dup1\n      dup3\n      dup2\n      mstore\n      0x20\n      add\n      swap2\n      pop\n      pop\n      mload(0x40)\n      dup1\n      swap2\n      sub\n      swap1\n      return\n        /* \"multisend2/FortMultisend.sol\":3575:3833  function claimTokens(address _token) public onlyOwner {... */\n    tag_15:\n      callvalue\n        /* \"--CODEGEN--\":8:17   */\n      dup1\n        /* \"--CODEGEN--\":5:7   */\n      iszero\n      tag_63\n      jumpi\n        /* \"--CODEGEN--\":30:31   */\n      0x0\n        /* \"--CODEGEN--\":27:28   */\n      dup1\n        /* \"--CODEGEN--\":20:32   */\n      revert\n        /* \"--CODEGEN--\":5:7   */\n    tag_63:\n        /* \"multisend2/FortMultisend.sol\":3575:3833  function claimTokens(address _token) public onlyOwner {... */\n      pop\n      tag_64\n      0x4\n      dup1\n      calldatasize\n      sub\n      dup2\n      add\n      swap1\n      dup1\n      dup1\n      calldataload\n      0xffffffffffffffffffffffffffffffffffffffff\n      and\n      swap1\n      0x20\n      add\n      swap1\n      swap3\n      swap2\n      swap1\n      pop\n      pop\n      pop\n      jump(tag_65)\n    tag_64:\n      stop\n        /* \"multisend2/Claimable.sol\":388:507  function pendingOwner() public view returns (address) {... */\n    tag_16:\n      callvalue\n        /* \"--CODEGEN--\":8:17   */\n      dup1\n        /* \"--CODEGEN--\":5:7   */\n      iszero\n      tag_66\n      jumpi\n        /* \"--CODEGEN--\":30:31   */\n      0x0\n        /* \"--CODEGEN--\":27:28   */\n      dup1\n        /* \"--CODEGEN--\":20:32   */\n      revert\n        /* \"--CODEGEN--\":5:7   */\n    tag_66:\n        /* \"multisend2/Claimable.sol\":388:507  function pendingOwner() public view returns (address) {... */\n      pop\n      tag_67\n      jump(tag_68)\n    tag_67:\n      mload(0x40)\n      dup1\n      dup3\n      0xffffffffffffffffffffffffffffffffffffffff\n      and\n      0xffffffffffffffffffffffffffffffffffffffff\n      and\n      dup2\n      mstore\n      0x20\n      add\n      swap2\n      pop\n      pop\n      mload(0x40)\n      dup1\n      swap2\n      sub\n      swap1\n      return\n        /* \"multisend2/FortMultisend.sol\":1876:2033  function setArrayLimit(uint256 _newLimit) public onlyOwner {... */\n    tag_17:\n      callvalue\n        /* \"--CODEGEN--\":8:17   */\n      dup1\n        /* \"--CODEGEN--\":5:7   */\n      iszero\n      tag_69\n      jumpi\n        /* \"--CODEGEN--\":30:31   */\n      0x0\n        /* \"--CODEGEN--\":27:28   */\n      dup1\n        /* \"--CODEGEN--\":20:32   */\n      revert\n        /* \"--CODEGEN--\":5:7   */\n    tag_69:\n        /* \"multisend2/FortMultisend.sol\":1876:2033  function setArrayLimit(uint256 _newLimit) public onlyOwner {... */\n      pop\n      tag_70\n      0x4\n      dup1\n      calldatasize\n      sub\n      dup2\n      add\n      swap1\n      dup1\n      dup1\n      calldataload\n      swap1\n      0x20\n      add\n      swap1\n      swap3\n      swap2\n      swap1\n      pop\n      pop\n      pop\n      jump(tag_71)\n    tag_70:\n      stop\n        /* \"multisend2/Claimable.sol\":852:1024  function transferOwnership(address newOwner) public onlyOwner {... */\n    tag_18:\n      callvalue\n        /* \"--CODEGEN--\":8:17   */\n      dup1\n        /* \"--CODEGEN--\":5:7   */\n      iszero\n      tag_72\n      jumpi\n        /* \"--CODEGEN--\":30:31   */\n      0x0\n        /* \"--CODEGEN--\":27:28   */\n      dup1\n        /* \"--CODEGEN--\":20:32   */\n      revert\n        /* \"--CODEGEN--\":5:7   */\n    tag_72:\n        /* \"multisend2/Claimable.sol\":852:1024  function transferOwnership(address newOwner) public onlyOwner {... */\n      pop\n      tag_73\n      0x4\n      dup1\n      calldatasize\n      sub\n      dup2\n      add\n      swap1\n      dup1\n      dup1\n      calldataload\n      0xffffffffffffffffffffffffffffffffffffffff\n      and\n      swap1\n      0x20\n      add\n      swap1\n      swap3\n      swap2\n      swap1\n      pop\n      pop\n      pop\n      jump(tag_74)\n    tag_73:\n      stop\n        /* \"multisend2/FortMultisend.sol\":2171:3009  function multisendToken(... */\n    tag_23:\n        /* \"multisend2/FortMultisend.sol\":2303:2316  uint256 total */\n      0x0\n        /* \"multisend2/FortMultisend.sol\":2330:2346  uint256 totalFee */\n      dup1\n        /* \"multisend2/FortMultisend.sol\":2360:2372  uint256 _fee */\n      0x0\n        /* \"multisend2/FortMultisend.sol\":2441:2457  ERC20 erc20token */\n      dup1\n        /* \"multisend2/FortMultisend.sol\":2482:2489  uint8 i */\n      0x0\n        /* \"multisend2/FortMultisend.sol\":2319:2320  0 */\n      dup1\n        /* \"multisend2/FortMultisend.sol\":2303:2320  uint256 total = 0 */\n      swap5\n      pop\n        /* \"multisend2/FortMultisend.sol\":2349:2350  0 */\n      0x0\n        /* \"multisend2/FortMultisend.sol\":2330:2350  uint256 totalFee = 0 */\n      swap4\n      pop\n        /* \"multisend2/FortMultisend.sol\":2375:2376  0 */\n      0x0\n        /* \"multisend2/FortMultisend.sol\":2360:2376  uint256 _fee = 0 */\n      swap3\n      pop\n        /* \"multisend2/FortMultisend.sol\":2418:2430  arrayLimit() */\n      tag_76\n        /* \"multisend2/FortMultisend.sol\":2418:2428  arrayLimit */\n      tag_56\n        /* \"multisend2/FortMultisend.sol\":2418:2430  arrayLimit() */\n      jump\t// in\n    tag_76:\n        /* \"multisend2/FortMultisend.sol\":2394:2407  _contributors */\n      dup8\n        /* \"multisend2/FortMultisend.sol\":2394:2414  _contributors.length */\n      mload\n        /* \"multisend2/FortMultisend.sol\":2394:2430  _contributors.length <= arrayLimit() */\n      gt\n      iszero\n        /* \"multisend2/FortMultisend.sol\":2386:2431  require(_contributors.length <= arrayLimit()) */\n      iszero\n      iszero\n      tag_77\n      jumpi\n      0x0\n      dup1\n      revert\n    tag_77:\n        /* \"multisend2/FortMultisend.sol\":2466:2471  token */\n      dup8\n        /* \"multisend2/FortMultisend.sol\":2441:2472  ERC20 erc20token = ERC20(token) */\n      swap2\n      pop\n        /* \"multisend2/FortMultisend.sol\":2492:2493  0 */\n      0x0\n        /* \"multisend2/FortMultisend.sol\":2482:2493  uint8 i = 0 */\n      swap1\n      pop\n        /* \"multisend2/FortMultisend.sol\":2503:2806  for (i; i < _contributors.length; i++) {... */\n    tag_78:\n        /* \"multisend2/FortMultisend.sol\":2515:2528  _contributors */\n      dup7\n        /* \"multisend2/FortMultisend.sol\":2515:2535  _contributors.length */\n      mload\n        /* \"multisend2/FortMultisend.sol\":2511:2512  i */\n      dup2\n        /* \"multisend2/FortMultisend.sol\":2511:2535  i < _contributors.length */\n      0xff\n      and\n      lt\n        /* \"multisend2/FortMultisend.sol\":2503:2806  for (i; i < _contributors.length; i++) {... */\n      iszero\n      tag_79\n      jumpi\n        /* \"multisend2/FortMultisend.sol\":2568:2577  _balances */\n      dup6\n        /* \"multisend2/FortMultisend.sol\":2578:2579  i */\n      dup2\n        /* \"multisend2/FortMultisend.sol\":2568:2580  _balances[i] */\n      0xff\n      and\n      dup2\n      mload\n      dup2\n      lt\n      iszero\n      iszero\n      tag_81\n      jumpi\n      invalid\n    tag_81:\n      swap1\n      0x20\n      add\n      swap1\n      0x20\n      mul\n      add\n      mload\n        /* \"multisend2/FortMultisend.sol\":2556:2580  totalFee += _balances[i] */\n      dup5\n      add\n      swap4\n      pop\n        /* \"multisend2/FortMultisend.sol\":2624:2628  1000 */\n      0x3e8\n        /* \"multisend2/FortMultisend.sol\":2617:2620  fee */\n      sload(0x9)\n        /* \"multisend2/FortMultisend.sol\":2602:2611  _balances */\n      dup8\n        /* \"multisend2/FortMultisend.sol\":2612:2613  i */\n      dup4\n        /* \"multisend2/FortMultisend.sol\":2602:2614  _balances[i] */\n      0xff\n      and\n      dup2\n      mload\n      dup2\n      lt\n      iszero\n      iszero\n      tag_82\n      jumpi\n      invalid\n    tag_82:\n      swap1\n      0x20\n      add\n      swap1\n      0x20\n      mul\n      add\n      mload\n        /* \"multisend2/FortMultisend.sol\":2602:2620  _balances[i] * fee */\n      mul\n        /* \"multisend2/FortMultisend.sol\":2601:2628  (_balances[i] * fee) / 1000 */\n      dup2\n      iszero\n      iszero\n      tag_83\n      jumpi\n      invalid\n    tag_83:\n      div\n        /* \"multisend2/FortMultisend.sol\":2594:2628  _fee = (_balances[i] * fee) / 1000 */\n      swap3\n      pop\n        /* \"multisend2/FortMultisend.sol\":2657:2679  _balances[i].sub(_fee) */\n      tag_84\n        /* \"multisend2/FortMultisend.sol\":2674:2678  _fee */\n      dup4\n        /* \"multisend2/FortMultisend.sol\":2657:2666  _balances */\n      dup8\n        /* \"multisend2/FortMultisend.sol\":2667:2668  i */\n      dup4\n        /* \"multisend2/FortMultisend.sol\":2657:2669  _balances[i] */\n      0xff\n      and\n      dup2\n      mload\n      dup2\n      lt\n      iszero\n      iszero\n      tag_85\n      jumpi\n      invalid\n    tag_85:\n      swap1\n      0x20\n      add\n      swap1\n      0x20\n      mul\n      add\n      mload\n        /* \"multisend2/FortMultisend.sol\":2657:2673  _balances[i].sub */\n      tag_86\n      swap1\n        /* \"multisend2/FortMultisend.sol\":2657:2679  _balances[i].sub(_fee) */\n      swap2\n      swap1\n      0xffffffff\n      and\n      jump\t// in\n    tag_84:\n        /* \"multisend2/FortMultisend.sol\":2642:2651  _balances */\n      dup7\n        /* \"multisend2/FortMultisend.sol\":2652:2653  i */\n      dup3\n        /* \"multisend2/FortMultisend.sol\":2642:2654  _balances[i] */\n      0xff\n      and\n      dup2\n      mload\n      dup2\n      lt\n      iszero\n      iszero\n      tag_87\n      jumpi\n      invalid\n    tag_87:\n      swap1\n      0x20\n      add\n      swap1\n      0x20\n      mul\n      add\n        /* \"multisend2/FortMultisend.sol\":2642:2679  _balances[i] = _balances[i].sub(_fee) */\n      dup2\n      dup2\n      mstore\n      pop\n      pop\n        /* \"multisend2/FortMultisend.sol\":2693:2703  erc20token */\n      dup2\n        /* \"multisend2/FortMultisend.sol\":2693:2716  erc20token.transferFrom */\n      0xffffffffffffffffffffffffffffffffffffffff\n      and\n      0x23b872dd\n        /* \"multisend2/FortMultisend.sol\":2717:2727  msg.sender */\n      caller\n        /* \"multisend2/FortMultisend.sol\":2729:2742  _contributors */\n      dup10\n        /* \"multisend2/FortMultisend.sol\":2743:2744  i */\n      dup5\n        /* \"multisend2/FortMultisend.sol\":2729:2745  _contributors[i] */\n      0xff\n      and\n      dup2\n      mload\n      dup2\n      lt\n      iszero\n      iszero\n      tag_88\n      jumpi\n      invalid\n    tag_88:\n      swap1\n      0x20\n      add\n      swap1\n      0x20\n      mul\n      add\n      mload\n        /* \"multisend2/FortMultisend.sol\":2747:2756  _balances */\n      dup10\n        /* \"multisend2/FortMultisend.sol\":2757:2758  i */\n      dup6\n        /* \"multisend2/FortMultisend.sol\":2747:2759  _balances[i] */\n      0xff\n      and\n      dup2\n      mload\n      dup2\n      lt\n      iszero\n      iszero\n      tag_89\n      jumpi\n      invalid\n    tag_89:\n      swap1\n      0x20\n      add\n      swap1\n      0x20\n      mul\n      add\n      mload\n        /* \"multisend2/FortMultisend.sol\":2693:2760  erc20token.transferFrom(msg.sender, _contributors[i], _balances[i]) */\n      mload(0x40)\n      dup5\n      0xffffffff\n      and\n      0x100000000000000000000000000000000000000000000000000000000\n      mul\n      dup2\n      mstore\n      0x4\n      add\n      dup1\n      dup5\n      0xffffffffffffffffffffffffffffffffffffffff\n      and\n      0xffffffffffffffffffffffffffffffffffffffff\n      and\n      dup2\n      mstore\n      0x20\n      add\n      dup4\n      0xffffffffffffffffffffffffffffffffffffffff\n      and\n      0xffffffffffffffffffffffffffffffffffffffff\n      and\n      dup2\n      mstore\n      0x20\n      add\n      dup3\n      dup2\n      mstore\n      0x20\n      add\n      swap4\n      pop\n      pop\n      pop\n      pop\n      0x20\n      mload(0x40)\n      dup1\n      dup4\n      sub\n      dup2\n      0x0\n      dup8\n      dup1\n      extcodesize\n      iszero\n        /* \"--CODEGEN--\":8:17   */\n      dup1\n        /* \"--CODEGEN--\":5:7   */\n      iszero\n      tag_90\n      jumpi\n        /* \"--CODEGEN--\":30:31   */\n      0x0\n        /* \"--CODEGEN--\":27:28   */\n      dup1\n        /* \"--CODEGEN--\":20:32   */\n      revert\n        /* \"--CODEGEN--\":5:7   */\n    tag_90:\n        /* \"multisend2/FortMultisend.sol\":2693:2760  erc20token.transferFrom(msg.sender, _contributors[i], _balances[i]) */\n      pop\n      gas\n      call\n      iszero\n        /* \"--CODEGEN--\":8:17   */\n      dup1\n        /* \"--CODEGEN--\":5:7   */\n      iszero\n      tag_91\n      jumpi\n        /* \"--CODEGEN--\":45:61   */\n      returndatasize\n        /* \"--CODEGEN--\":42:43   */\n      0x0\n        /* \"--CODEGEN--\":39:40   */\n      dup1\n        /* \"--CODEGEN--\":24:62   */\n      returndatacopy\n        /* \"--CODEGEN--\":77:93   */\n      returndatasize\n        /* \"--CODEGEN--\":74:75   */\n      0x0\n        /* \"--CODEGEN--\":67:94   */\n      revert\n        /* \"--CODEGEN--\":5:7   */\n    tag_91:\n        /* \"multisend2/FortMultisend.sol\":2693:2760  erc20token.transferFrom(msg.sender, _contributors[i], _balances[i]) */\n      pop\n      pop\n      pop\n      pop\n      mload(0x40)\n      returndatasize\n        /* \"--CODEGEN--\":13:15   */\n      0x20\n        /* \"--CODEGEN--\":8:11   */\n      dup2\n        /* \"--CODEGEN--\":5:16   */\n      lt\n        /* \"--CODEGEN--\":2:4   */\n      iszero\n      tag_92\n      jumpi\n        /* \"--CODEGEN--\":29:30   */\n      0x0\n        /* \"--CODEGEN--\":26:27   */\n      dup1\n        /* \"--CODEGEN--\":19:31   */\n      revert\n        /* \"--CODEGEN--\":2:4   */\n    tag_92:\n        /* \"multisend2/FortMultisend.sol\":2693:2760  erc20token.transferFrom(msg.sender, _contributors[i], _balances[i]) */\n      dup2\n      add\n      swap1\n      dup1\n      dup1\n      mload\n      swap1\n      0x20\n      add\n      swap1\n      swap3\n      swap2\n      swap1\n      pop\n      pop\n      pop\n      pop\n        /* \"multisend2/FortMultisend.sol\":2783:2792  _balances */\n      dup6\n        /* \"multisend2/FortMultisend.sol\":2793:2794  i */\n      dup2\n        /* \"multisend2/FortMultisend.sol\":2783:2795  _balances[i] */\n      0xff\n      and\n      dup2\n      mload\n      dup2\n      lt\n      iszero\n      iszero\n      tag_93\n      jumpi\n      invalid\n    tag_93:\n      swap1\n      0x20\n      add\n      swap1\n      0x20\n      mul\n      add\n      mload\n        /* \"multisend2/FortMultisend.sol\":2774:2795  total += _balances[i] */\n      dup6\n      add\n      swap5\n      pop\n        /* \"multisend2/FortMultisend.sol\":2537:2540  i++ */\n      dup1\n      dup1\n      0x1\n      add\n      swap2\n      pop\n      pop\n        /* \"multisend2/FortMultisend.sol\":2503:2806  for (i; i < _contributors.length; i++) {... */\n      jump(tag_78)\n    tag_79:\n        /* \"multisend2/FortMultisend.sol\":2827:2832  total */\n      dup5\n        /* \"multisend2/FortMultisend.sol\":2815:2832  totalFee -= total */\n      dup5\n      sub\n      swap4\n      pop\n        /* \"multisend2/FortMultisend.sol\":2842:2852  erc20token */\n      dup2\n        /* \"multisend2/FortMultisend.sol\":2842:2865  erc20token.transferFrom */\n      0xffffffffffffffffffffffffffffffffffffffff\n      and\n      0x23b872dd\n        /* \"multisend2/FortMultisend.sol\":2866:2876  msg.sender */\n      caller\n        /* \"multisend2/FortMultisend.sol\":2886:2890  this */\n      address\n        /* \"multisend2/FortMultisend.sol\":2893:2901  totalFee */\n      dup8\n        /* \"multisend2/FortMultisend.sol\":2842:2902  erc20token.transferFrom(msg.sender, address(this), totalFee) */\n      mload(0x40)\n      dup5\n      0xffffffff\n      and\n      0x100000000000000000000000000000000000000000000000000000000\n      mul\n      dup2\n      mstore\n      0x4\n      add\n      dup1\n      dup5\n      0xffffffffffffffffffffffffffffffffffffffff\n      and\n      0xffffffffffffffffffffffffffffffffffffffff\n      and\n      dup2\n      mstore\n      0x20\n      add\n      dup4\n      0xffffffffffffffffffffffffffffffffffffffff\n      and\n      0xffffffffffffffffffffffffffffffffffffffff\n      and\n      dup2\n      mstore\n      0x20\n      add\n      dup3\n      dup2\n      mstore\n      0x20\n      add\n      swap4\n      pop\n      pop\n      pop\n      pop\n      0x20\n      mload(0x40)\n      dup1\n      dup4\n      sub\n      dup2\n      0x0\n      dup8\n      dup1\n      extcodesize\n      iszero\n        /* \"--CODEGEN--\":8:17   */\n      dup1\n        /* \"--CODEGEN--\":5:7   */\n      iszero\n      tag_94\n      jumpi\n        /* \"--CODEGEN--\":30:31   */\n      0x0\n        /* \"--CODEGEN--\":27:28   */\n      dup1\n        /* \"--CODEGEN--\":20:32   */\n      revert\n        /* \"--CODEGEN--\":5:7   */\n    tag_94:\n        /* \"multisend2/FortMultisend.sol\":2842:2902  erc20token.transferFrom(msg.sender, address(this), totalFee) */\n      pop\n      gas\n      call\n      iszero\n        /* \"--CODEGEN--\":8:17   */\n      dup1\n        /* \"--CODEGEN--\":5:7   */\n      iszero\n      tag_95\n      jumpi\n        /* \"--CODEGEN--\":45:61   */\n      returndatasize\n        /* \"--CODEGEN--\":42:43   */\n      0x0\n        /* \"--CODEGEN--\":39:40   */\n      dup1\n        /* \"--CODEGEN--\":24:62   */\n      returndatacopy\n        /* \"--CODEGEN--\":77:93   */\n      returndatasize\n        /* \"--CODEGEN--\":74:75   */\n      0x0\n        /* \"--CODEGEN--\":67:94   */\n      revert\n        /* \"--CODEGEN--\":5:7   */\n    tag_95:\n        /* \"multisend2/FortMultisend.sol\":2842:2902  erc20token.transferFrom(msg.sender, address(this), totalFee) */\n      pop\n      pop\n      pop\n      pop\n      mload(0x40)\n      returndatasize\n        /* \"--CODEGEN--\":13:15   */\n      0x20\n        /* \"--CODEGEN--\":8:11   */\n      dup2\n        /* \"--CODEGEN--\":5:16   */\n      lt\n        /* \"--CODEGEN--\":2:4   */\n      iszero\n      tag_96\n      jumpi\n        /* \"--CODEGEN--\":29:30   */\n      0x0\n        /* \"--CODEGEN--\":26:27   */\n      dup1\n        /* \"--CODEGEN--\":19:31   */\n      revert\n        /* \"--CODEGEN--\":2:4   */\n    tag_96:\n        /* \"multisend2/FortMultisend.sol\":2842:2902  erc20token.transferFrom(msg.sender, address(this), totalFee) */\n      dup2\n      add\n      swap1\n      dup1\n      dup1\n      mload\n      swap1\n      0x20\n      add\n      swap1\n      swap3\n      swap2\n      swap1\n      pop\n      pop\n      pop\n      pop\n        /* \"multisend2/FortMultisend.sol\":2912:2962  setTxCount(msg.sender, txCount(msg.sender).add(1)) */\n      tag_97\n        /* \"multisend2/FortMultisend.sol\":2923:2933  msg.sender */\n      caller\n        /* \"multisend2/FortMultisend.sol\":2935:2961  txCount(msg.sender).add(1) */\n      tag_98\n        /* \"multisend2/FortMultisend.sol\":2959:2960  1 */\n      0x1\n        /* \"multisend2/FortMultisend.sol\":2935:2954  txCount(msg.sender) */\n      tag_99\n        /* \"multisend2/FortMultisend.sol\":2943:2953  msg.sender */\n      caller\n        /* \"multisend2/FortMultisend.sol\":2935:2942  txCount */\n      tag_59\n        /* \"multisend2/FortMultisend.sol\":2935:2954  txCount(msg.sender) */\n      jump\t// in\n    tag_99:\n        /* \"multisend2/FortMultisend.sol\":2935:2958  txCount(msg.sender).add */\n      tag_100\n      swap1\n        /* \"multisend2/FortMultisend.sol\":2935:2961  txCount(msg.sender).add(1) */\n      swap2\n      swap1\n      0xffffffff\n      and\n      jump\t// in\n    tag_98:\n        /* \"multisend2/FortMultisend.sol\":2912:2922  setTxCount */\n      tag_101\n        /* \"multisend2/FortMultisend.sol\":2912:2962  setTxCount(msg.sender, txCount(msg.sender).add(1)) */\n      jump\t// in\n    tag_97:\n        /* \"multisend2/FortMultisend.sol\":2977:3002  Multisended(total, token) */\n      0x4afd2ce457d973046bd54f5d7d36368546da08b88be1bca8ae50e32b451da17\n        /* \"multisend2/FortMultisend.sol\":2989:2994  total */\n      dup6\n        /* \"multisend2/FortMultisend.sol\":2996:3001  token */\n      dup10\n        /* \"multisend2/FortMultisend.sol\":2977:3002  Multisended(total, token) */\n      mload(0x40)\n      dup1\n      dup4\n      dup2\n      mstore\n      0x20\n      add\n      dup3\n      0xffffffffffffffffffffffffffffffffffffffff\n      and\n      0xffffffffffffffffffffffffffffffffffffffff\n      and\n      dup2\n      mstore\n      0x20\n      add\n      swap3\n      pop\n      pop\n      pop\n      mload(0x40)\n      dup1\n      swap2\n      sub\n      swap1\n      log1\n        /* \"multisend2/FortMultisend.sol\":2171:3009  function multisendToken(... */\n      pop\n      pop\n      pop\n      pop\n      pop\n      pop\n      pop\n      pop\n      jump\t// out\n        /* \"multisend2/FortMultisend.sol\":2039:2098  function setFee() public onlyOwner {... */\n    tag_26:\n        /* \"multisend2/Ownable.sol\":710:717  owner() */\n      tag_103\n        /* \"multisend2/Ownable.sol\":710:715  owner */\n      tag_51\n        /* \"multisend2/Ownable.sol\":710:717  owner() */\n      jump\t// in\n    tag_103:\n        /* \"multisend2/Ownable.sol\":696:717  msg.sender == owner() */\n      0xffffffffffffffffffffffffffffffffffffffff\n      and\n        /* \"multisend2/Ownable.sol\":696:706  msg.sender */\n      caller\n        /* \"multisend2/Ownable.sol\":696:717  msg.sender == owner() */\n      0xffffffffffffffffffffffffffffffffffffffff\n      and\n      eq\n        /* \"multisend2/Ownable.sol\":688:718  require(msg.sender == owner()) */\n      iszero\n      iszero\n      tag_104\n      jumpi\n      0x0\n      dup1\n      revert\n    tag_104:\n        /* \"multisend2/FortMultisend.sol\":2090:2091  5 */\n      0x5\n        /* \"multisend2/FortMultisend.sol\":2084:2087  fee */\n      0x9\n        /* \"multisend2/FortMultisend.sol\":2084:2091  fee = 5 */\n      dup2\n      swap1\n      sstore\n      pop\n        /* \"multisend2/FortMultisend.sol\":2039:2098  function setFee() public onlyOwner {... */\n      jump\t// out\n        /* \"multisend2/Claimable.sol\":1114:1383  function claimOwnership() public onlyPendingOwner {... */\n    tag_29:\n        /* \"multisend2/Claimable.sol\":669:683  pendingOwner() */\n      tag_107\n        /* \"multisend2/Claimable.sol\":669:681  pendingOwner */\n      tag_68\n        /* \"multisend2/Claimable.sol\":669:683  pendingOwner() */\n      jump\t// in\n    tag_107:\n        /* \"multisend2/Claimable.sol\":655:683  msg.sender == pendingOwner() */\n      0xffffffffffffffffffffffffffffffffffffffff\n      and\n        /* \"multisend2/Claimable.sol\":655:665  msg.sender */\n      caller\n        /* \"multisend2/Claimable.sol\":655:683  msg.sender == pendingOwner() */\n      0xffffffffffffffffffffffffffffffffffffffff\n      and\n      eq\n        /* \"multisend2/Claimable.sol\":647:684  require(msg.sender == pendingOwner()) */\n      iszero\n      iszero\n      tag_108\n      jumpi\n      0x0\n      dup1\n      revert\n    tag_108:\n        /* \"multisend2/Claimable.sol\":1179:1224  OwnershipTransferred(owner(), pendingOwner()) */\n      0x8be0079c531659141344cd1fd0a4f28419497f9722a3daafe3b4186f6b6457e0\n        /* \"multisend2/Claimable.sol\":1200:1207  owner() */\n      tag_110\n        /* \"multisend2/Claimable.sol\":1200:1205  owner */\n      tag_51\n        /* \"multisend2/Claimable.sol\":1200:1207  owner() */\n      jump\t// in\n    tag_110:\n        /* \"multisend2/Claimable.sol\":1209:1223  pendingOwner() */\n      tag_111\n        /* \"multisend2/Claimable.sol\":1209:1221  pendingOwner */\n      tag_68\n        /* \"multisend2/Claimable.sol\":1209:1223  pendingOwner() */\n      jump\t// in\n    tag_111:\n        /* \"multisend2/Claimable.sol\":1179:1224  OwnershipTransferred(owner(), pendingOwner()) */\n      mload(0x40)\n      dup1\n      dup4\n      0xffffffffffffffffffffffffffffffffffffffff\n      and\n      0xffffffffffffffffffffffffffffffffffffffff\n      and\n      dup2\n      mstore\n      0x20\n      add\n      dup3\n      0xffffffffffffffffffffffffffffffffffffffff\n      and\n      0xffffffffffffffffffffffffffffffffffffffff\n      and\n      dup2\n      mstore\n      0x20\n      add\n      swap3\n      pop\n      pop\n      pop\n      mload(0x40)\n      dup1\n      swap2\n      sub\n      swap1\n      log1\n        /* \"multisend2/Claimable.sol\":1271:1285  addressStorage */\n      0x5\n        /* \"multisend2/Claimable.sol\":1271:1312  addressStorage[keccak256(\"pendingOwner\")] */\n      0x0\n        /* \"multisend2/Claimable.sol\":1286:1311  keccak256(\"pendingOwner\") */\n      mload(0x40)\n      dup1\n      dup1\n      0x70656e64696e674f776e65720000000000000000000000000000000000000000\n      dup2\n      mstore\n      pop\n      0xc\n      add\n      swap1\n      pop\n      mload(0x40)\n      dup1\n      swap2\n      sub\n      swap1\n      keccak256\n        /* \"multisend2/Claimable.sol\":1271:1312  addressStorage[keccak256(\"pendingOwner\")] */\n      not(0x0)\n      and\n      not(0x0)\n      and\n      dup2\n      mstore\n      0x20\n      add\n      swap1\n      dup2\n      mstore\n      0x20\n      add\n      0x0\n      keccak256\n      0x0\n      swap1\n      sload\n      swap1\n      0x100\n      exp\n      swap1\n      div\n      0xffffffffffffffffffffffffffffffffffffffff\n      and\n        /* \"multisend2/Claimable.sol\":1234:1248  addressStorage */\n      0x5\n        /* \"multisend2/Claimable.sol\":1234:1268  addressStorage[keccak256(\"owner\")] */\n      0x0\n        /* \"multisend2/Claimable.sol\":1249:1267  keccak256(\"owner\") */\n      mload(0x40)\n      dup1\n      dup1\n      0x6f776e6572000000000000000000000000000000000000000000000000000000\n      dup2\n      mstore\n      pop\n      0x5\n      add\n      swap1\n      pop\n      mload(0x40)\n      dup1\n      swap2\n      sub\n      swap1\n      keccak256\n        /* \"multisend2/Claimable.sol\":1234:1268  addressStorage[keccak256(\"owner\")] */\n      not(0x0)\n      and\n      not(0x0)\n      and\n      dup2\n      mstore\n      0x20\n      add\n      swap1\n      dup2\n      mstore\n      0x20\n      add\n      0x0\n      keccak256\n      0x0\n        /* \"multisend2/Claimable.sol\":1234:1312  addressStorage[keccak256(\"owner\")] = addressStorage[keccak256(\"pendingOwner\")] */\n      0x100\n      exp\n      dup2\n      sload\n      dup2\n      0xffffffffffffffffffffffffffffffffffffffff\n      mul\n      not\n      and\n      swap1\n      dup4\n      0xffffffffffffffffffffffffffffffffffffffff\n      and\n      mul\n      or\n      swap1\n      sstore\n      pop\n        /* \"multisend2/Claimable.sol\":1374:1375  0 */\n      0x0\n        /* \"multisend2/Claimable.sol\":1322:1336  addressStorage */\n      0x5\n        /* \"multisend2/Claimable.sol\":1322:1363  addressStorage[keccak256(\"pendingOwner\")] */\n      0x0\n        /* \"multisend2/Claimable.sol\":1337:1362  keccak256(\"pendingOwner\") */\n      mload(0x40)\n      dup1\n      dup1\n      0x70656e64696e674f776e65720000000000000000000000000000000000000000\n      dup2\n      mstore\n      pop\n      0xc\n      add\n      swap1\n      pop\n      mload(0x40)\n      dup1\n      swap2\n      sub\n      swap1\n      keccak256\n        /* \"multisend2/Claimable.sol\":1322:1363  addressStorage[keccak256(\"pendingOwner\")] */\n      not(0x0)\n      and\n      not(0x0)\n      and\n      dup2\n      mstore\n      0x20\n      add\n      swap1\n      dup2\n      mstore\n      0x20\n      add\n      0x0\n      keccak256\n      0x0\n        /* \"multisend2/Claimable.sol\":1322:1376  addressStorage[keccak256(\"pendingOwner\")] = address(0) */\n      0x100\n      exp\n      dup2\n      sload\n      dup2\n      0xffffffffffffffffffffffffffffffffffffffff\n      mul\n      not\n      and\n      swap1\n      dup4\n      0xffffffffffffffffffffffffffffffffffffffff\n      and\n      mul\n      or\n      swap1\n      sstore\n      pop\n        /* \"multisend2/Claimable.sol\":1114:1383  function claimOwnership() public onlyPendingOwner {... */\n      jump\t// out\n        /* \"multisend2/UpgradeabilityStorage.sol\":598:678  function version() public view returns (string) {... */\n    tag_32:\n        /* \"multisend2/UpgradeabilityStorage.sol\":638:644  string */\n      0x60\n        /* \"multisend2/UpgradeabilityStorage.sol\":663:671  _version */\n      0x1\n        /* \"multisend2/UpgradeabilityStorage.sol\":656:671  return _version */\n      dup1\n      sload\n      0x1\n      dup2\n      0x1\n      and\n      iszero\n      0x100\n      mul\n      sub\n      and\n      0x2\n      swap1\n      div\n      dup1\n      0x1f\n      add\n      0x20\n      dup1\n      swap2\n      div\n      mul\n      0x20\n      add\n      mload(0x40)\n      swap1\n      dup2\n      add\n      0x40\n      mstore\n      dup1\n      swap3\n      swap2\n      swap1\n      dup2\n      dup2\n      mstore\n      0x20\n      add\n      dup3\n      dup1\n      sload\n      0x1\n      dup2\n      0x1\n      and\n      iszero\n      0x100\n      mul\n      sub\n      and\n      0x2\n      swap1\n      div\n      dup1\n      iszero\n      tag_113\n      jumpi\n      dup1\n      0x1f\n      lt\n      tag_114\n      jumpi\n      0x100\n      dup1\n      dup4\n      sload\n      div\n      mul\n      dup4\n      mstore\n      swap2\n      0x20\n      add\n      swap2\n      jump(tag_113)\n    tag_114:\n      dup3\n      add\n      swap2\n      swap1\n      0x0\n      mstore\n      keccak256(0x0, 0x20)\n      swap1\n    tag_115:\n      dup2\n      sload\n      dup2\n      mstore\n      swap1\n      0x1\n      add\n      swap1\n      0x20\n      add\n      dup1\n      dup4\n      gt\n      tag_115\n      jumpi\n      dup3\n      swap1\n      sub\n      0x1f\n      and\n      dup3\n      add\n      swap2\n    tag_113:\n      pop\n      pop\n      pop\n      pop\n      pop\n      swap1\n      pop\n        /* \"multisend2/UpgradeabilityStorage.sol\":598:678  function version() public view returns (string) {... */\n      swap1\n      jump\t// out\n        /* \"multisend2/UpgradeabilityStorage.sol\":810:905  function implementation() public view returns (address) {... */\n    tag_39:\n        /* \"multisend2/UpgradeabilityStorage.sol\":857:864  address */\n      0x0\n        /* \"multisend2/UpgradeabilityStorage.sol\":883:898  _implementation */\n      0x2\n      0x0\n      swap1\n      sload\n      swap1\n      0x100\n      exp\n      swap1\n      div\n      0xffffffffffffffffffffffffffffffffffffffff\n      and\n        /* \"multisend2/UpgradeabilityStorage.sol\":876:898  return _implementation */\n      swap1\n      pop\n        /* \"multisend2/UpgradeabilityStorage.sol\":810:905  function implementation() public view returns (address) {... */\n      swap1\n      jump\t// out\n        /* \"multisend2/FortMultisend.sol\":3839:3989  function claimETH() public onlyOwner {... */\n    tag_42:\n        /* \"multisend2/Ownable.sol\":710:717  owner() */\n      tag_118\n        /* \"multisend2/Ownable.sol\":710:715  owner */\n      tag_51\n        /* \"multisend2/Ownable.sol\":710:717  owner() */\n      jump\t// in\n    tag_118:\n        /* \"multisend2/Ownable.sol\":696:717  msg.sender == owner() */\n      0xffffffffffffffffffffffffffffffffffffffff\n      and\n        /* \"multisend2/Ownable.sol\":696:706  msg.sender */\n      caller\n        /* \"multisend2/Ownable.sol\":696:717  msg.sender == owner() */\n      0xffffffffffffffffffffffffffffffffffffffff\n      and\n      eq\n        /* \"multisend2/Ownable.sol\":688:718  require(msg.sender == owner()) */\n      iszero\n      iszero\n      tag_119\n      jumpi\n      0x0\n      dup1\n      revert\n    tag_119:\n        /* \"multisend2/FortMultisend.sol\":3886:3893  owner() */\n      tag_121\n        /* \"multisend2/FortMultisend.sol\":3886:3891  owner */\n      tag_51\n        /* \"multisend2/FortMultisend.sol\":3886:3893  owner() */\n      jump\t// in\n    tag_121:\n        /* \"multisend2/FortMultisend.sol\":3886:3902  owner().transfer */\n      0xffffffffffffffffffffffffffffffffffffffff\n      and\n        /* \"multisend2/FortMultisend.sol\":3886:3925  owner().transfer(address(this).balance) */\n      0x8fc\n        /* \"multisend2/FortMultisend.sol\":3911:3915  this */\n      address\n        /* \"multisend2/FortMultisend.sol\":3903:3924  address(this).balance */\n      0xffffffffffffffffffffffffffffffffffffffff\n      and\n      balance\n        /* \"multisend2/FortMultisend.sol\":3886:3925  owner().transfer(address(this).balance) */\n      swap1\n      dup2\n      iszero\n      mul\n      swap1\n      mload(0x40)\n      0x0\n      mload(0x40)\n      dup1\n      dup4\n      sub\n      dup2\n      dup6\n      dup9\n      dup9\n      call\n      swap4\n      pop\n      pop\n      pop\n      pop\n      iszero\n        /* \"--CODEGEN--\":8:17   */\n      dup1\n        /* \"--CODEGEN--\":5:7   */\n      iszero\n      tag_122\n      jumpi\n        /* \"--CODEGEN--\":45:61   */\n      returndatasize\n        /* \"--CODEGEN--\":42:43   */\n      0x0\n        /* \"--CODEGEN--\":39:40   */\n      dup1\n        /* \"--CODEGEN--\":24:62   */\n      returndatacopy\n        /* \"--CODEGEN--\":77:93   */\n      returndatasize\n        /* \"--CODEGEN--\":74:75   */\n      0x0\n        /* \"--CODEGEN--\":67:94   */\n      revert\n        /* \"--CODEGEN--\":5:7   */\n    tag_122:\n        /* \"multisend2/FortMultisend.sol\":3886:3925  owner().transfer(address(this).balance) */\n      pop\n        /* \"multisend2/FortMultisend.sol\":3940:3982  ClaimedETH(owner(), address(this).balance) */\n      0x9f413f0f451c24edeec8f50838056a8d47c9d8ea0226e5a536392f677a310ad5\n        /* \"multisend2/FortMultisend.sol\":3951:3958  owner() */\n      tag_123\n        /* \"multisend2/FortMultisend.sol\":3951:3956  owner */\n      tag_51\n        /* \"multisend2/FortMultisend.sol\":3951:3958  owner() */\n      jump\t// in\n    tag_123:\n        /* \"multisend2/FortMultisend.sol\":3968:3972  this */\n      address\n        /* \"multisend2/FortMultisend.sol\":3960:3981  address(this).balance */\n      0xffffffffffffffffffffffffffffffffffffffff\n      and\n      balance\n        /* \"multisend2/FortMultisend.sol\":3940:3982  ClaimedETH(owner(), address(this).balance) */\n      mload(0x40)\n      dup1\n      dup4\n      0xffffffffffffffffffffffffffffffffffffffff\n      and\n      0xffffffffffffffffffffffffffffffffffffffff\n      and\n      dup2\n      mstore\n      0x20\n      add\n      dup3\n      dup2\n      mstore\n      0x20\n      add\n      swap3\n      pop\n      pop\n      pop\n      mload(0x40)\n      dup1\n      swap2\n      sub\n      swap1\n      log1\n        /* \"multisend2/FortMultisend.sol\":3839:3989  function claimETH() public onlyOwner {... */\n      jump\t// out\n        /* \"multisend2/FortMultisend.sol\":2104:2165  function unsetFee() public onlyOwner {... */\n    tag_45:\n        /* \"multisend2/Ownable.sol\":710:717  owner() */\n      tag_125\n        /* \"multisend2/Ownable.sol\":710:715  owner */\n      tag_51\n        /* \"multisend2/Ownable.sol\":710:717  owner() */\n      jump\t// in\n    tag_125:\n        /* \"multisend2/Ownable.sol\":696:717  msg.sender == owner() */\n      0xffffffffffffffffffffffffffffffffffffffff\n      and\n        /* \"multisend2/Ownable.sol\":696:706  msg.sender */\n      caller\n        /* \"multisend2/Ownable.sol\":696:717  msg.sender == owner() */\n      0xffffffffffffffffffffffffffffffffffffffff\n      and\n      eq\n        /* \"multisend2/Ownable.sol\":688:718  require(msg.sender == owner()) */\n      iszero\n      iszero\n      tag_126\n      jumpi\n      0x0\n      dup1\n      revert\n    tag_126:\n        /* \"multisend2/FortMultisend.sol\":2157:2158  0 */\n      0x0\n        /* \"multisend2/FortMultisend.sol\":2151:2154  fee */\n      0x9\n        /* \"multisend2/FortMultisend.sol\":2151:2158  fee = 0 */\n      dup2\n      swap1\n      sstore\n      pop\n        /* \"multisend2/FortMultisend.sol\":2104:2165  function unsetFee() public onlyOwner {... */\n      jump\t// out\n        /* \"multisend2/UpgradeabilityOwnerStorage.sol\":429:534  function upgradeabilityOwner() public view returns (address) {... */\n    tag_48:\n        /* \"multisend2/UpgradeabilityOwnerStorage.sol\":481:488  address */\n      0x0\n        /* \"multisend2/UpgradeabilityOwnerStorage.sol\":507:527  _upgradeabilityOwner */\n      dup1\n      0x0\n      swap1\n      sload\n      swap1\n      0x100\n      exp\n      swap1\n      div\n      0xffffffffffffffffffffffffffffffffffffffff\n      and\n        /* \"multisend2/UpgradeabilityOwnerStorage.sol\":500:527  return _upgradeabilityOwner */\n      swap1\n      pop\n        /* \"multisend2/UpgradeabilityOwnerStorage.sol\":429:534  function upgradeabilityOwner() public view returns (address) {... */\n      swap1\n      jump\t// out\n        /* \"multisend2/Ownable.sol\":838:943  function owner() public view returns (address) {... */\n    tag_51:\n        /* \"multisend2/Ownable.sol\":876:883  address */\n      0x0\n        /* \"multisend2/Ownable.sol\":902:916  addressStorage */\n      0x5\n        /* \"multisend2/Ownable.sol\":902:936  addressStorage[keccak256(\"owner\")] */\n      0x0\n        /* \"multisend2/Ownable.sol\":917:935  keccak256(\"owner\") */\n      mload(0x40)\n      dup1\n      dup1\n      0x6f776e6572000000000000000000000000000000000000000000000000000000\n      dup2\n      mstore\n      pop\n      0x5\n      add\n      swap1\n      pop\n      mload(0x40)\n      dup1\n      swap2\n      sub\n      swap1\n      keccak256\n        /* \"multisend2/Ownable.sol\":902:936  addressStorage[keccak256(\"owner\")] */\n      not(0x0)\n      and\n      not(0x0)\n      and\n      dup2\n      mstore\n      0x20\n      add\n      swap1\n      dup2\n      mstore\n      0x20\n      add\n      0x0\n      keccak256\n      0x0\n      swap1\n      sload\n      swap1\n      0x100\n      exp\n      swap1\n      div\n      0xffffffffffffffffffffffffffffffffffffffff\n      and\n        /* \"multisend2/Ownable.sol\":895:936  return addressStorage[keccak256(\"owner\")] */\n      swap1\n      pop\n        /* \"multisend2/Ownable.sol\":838:943  function owner() public view returns (address) {... */\n      swap1\n      jump\t// out\n        /* \"multisend2/FortMultisend.sol\":3015:3569  function multisendEther(address[] _contributors, uint256[] _balances)... */\n    tag_53:\n        /* \"multisend2/FortMultisend.sol\":3185:3197  uint256 _fee */\n      0x0\n        /* \"multisend2/FortMultisend.sol\":3213:3222  uint256 i */\n      dup1\n        /* \"multisend2/FortMultisend.sol\":3162:3174  arrayLimit() */\n      tag_131\n        /* \"multisend2/FortMultisend.sol\":3162:3172  arrayLimit */\n      tag_56\n        /* \"multisend2/FortMultisend.sol\":3162:3174  arrayLimit() */\n      jump\t// in\n    tag_131:\n        /* \"multisend2/FortMultisend.sol\":3138:3151  _contributors */\n      dup5\n        /* \"multisend2/FortMultisend.sol\":3138:3158  _contributors.length */\n      mload\n        /* \"multisend2/FortMultisend.sol\":3138:3174  _contributors.length <= arrayLimit() */\n      gt\n      iszero\n        /* \"multisend2/FortMultisend.sol\":3130:3175  require(_contributors.length <= arrayLimit()) */\n      iszero\n      iszero\n      tag_132\n      jumpi\n      0x0\n      dup1\n      revert\n    tag_132:\n        /* \"multisend2/FortMultisend.sol\":3225:3226  0 */\n      0x0\n        /* \"multisend2/FortMultisend.sol\":3213:3226  uint256 i = 0 */\n      swap1\n      pop\n        /* \"multisend2/FortMultisend.sol\":3208:3422  for (uint256 i = 0; i < _contributors.length; i++) {... */\n    tag_133:\n        /* \"multisend2/FortMultisend.sol\":3232:3245  _contributors */\n      dup4\n        /* \"multisend2/FortMultisend.sol\":3232:3252  _contributors.length */\n      mload\n        /* \"multisend2/FortMultisend.sol\":3228:3229  i */\n      dup2\n        /* \"multisend2/FortMultisend.sol\":3228:3252  i < _contributors.length */\n      lt\n        /* \"multisend2/FortMultisend.sol\":3208:3422  for (uint256 i = 0; i < _contributors.length; i++) {... */\n      iszero\n      tag_134\n      jumpi\n        /* \"multisend2/FortMultisend.sol\":3303:3307  1000 */\n      0x3e8\n        /* \"multisend2/FortMultisend.sol\":3296:3299  fee */\n      sload(0x9)\n        /* \"multisend2/FortMultisend.sol\":3281:3290  _balances */\n      dup5\n        /* \"multisend2/FortMultisend.sol\":3291:3292  i */\n      dup4\n        /* \"multisend2/FortMultisend.sol\":3281:3293  _balances[i] */\n      dup2\n      mload\n      dup2\n      lt\n      iszero\n      iszero\n      tag_136\n      jumpi\n      invalid\n    tag_136:\n      swap1\n      0x20\n      add\n      swap1\n      0x20\n      mul\n      add\n      mload\n        /* \"multisend2/FortMultisend.sol\":3281:3299  _balances[i] * fee */\n      mul\n        /* \"multisend2/FortMultisend.sol\":3280:3307  (_balances[i] * fee) / 1000 */\n      dup2\n      iszero\n      iszero\n      tag_137\n      jumpi\n      invalid\n    tag_137:\n      div\n        /* \"multisend2/FortMultisend.sol\":3273:3307  _fee = (_balances[i] * fee) / 1000 */\n      swap2\n      pop\n        /* \"multisend2/FortMultisend.sol\":3336:3358  _balances[i].sub(_fee) */\n      tag_138\n        /* \"multisend2/FortMultisend.sol\":3353:3357  _fee */\n      dup3\n        /* \"multisend2/FortMultisend.sol\":3336:3345  _balances */\n      dup5\n        /* \"multisend2/FortMultisend.sol\":3346:3347  i */\n      dup4\n        /* \"multisend2/FortMultisend.sol\":3336:3348  _balances[i] */\n      dup2\n      mload\n      dup2\n      lt\n      iszero\n      iszero\n      tag_139\n      jumpi\n      invalid\n    tag_139:\n      swap1\n      0x20\n      add\n      swap1\n      0x20\n      mul\n      add\n      mload\n        /* \"multisend2/FortMultisend.sol\":3336:3352  _balances[i].sub */\n      tag_86\n      swap1\n        /* \"multisend2/FortMultisend.sol\":3336:3358  _balances[i].sub(_fee) */\n      swap2\n      swap1\n      0xffffffff\n      and\n      jump\t// in\n    tag_138:\n        /* \"multisend2/FortMultisend.sol\":3321:3330  _balances */\n      dup4\n        /* \"multisend2/FortMultisend.sol\":3331:3332  i */\n      dup3\n        /* \"multisend2/FortMultisend.sol\":3321:3333  _balances[i] */\n      dup2\n      mload\n      dup2\n      lt\n      iszero\n      iszero\n      tag_140\n      jumpi\n      invalid\n    tag_140:\n      swap1\n      0x20\n      add\n      swap1\n      0x20\n      mul\n      add\n        /* \"multisend2/FortMultisend.sol\":3321:3358  _balances[i] = _balances[i].sub(_fee) */\n      dup2\n      dup2\n      mstore\n      pop\n      pop\n        /* \"multisend2/FortMultisend.sol\":3372:3385  _contributors */\n      dup4\n        /* \"multisend2/FortMultisend.sol\":3386:3387  i */\n      dup2\n        /* \"multisend2/FortMultisend.sol\":3372:3388  _contributors[i] */\n      dup2\n      mload\n      dup2\n      lt\n      iszero\n      iszero\n      tag_141\n      jumpi\n      invalid\n    tag_141:\n      swap1\n      0x20\n      add\n      swap1\n      0x20\n      mul\n      add\n      mload\n        /* \"multisend2/FortMultisend.sol\":3372:3397  _contributors[i].transfer */\n      0xffffffffffffffffffffffffffffffffffffffff\n      and\n        /* \"multisend2/FortMultisend.sol\":3372:3411  _contributors[i].transfer(_balances[i]) */\n      0x8fc\n        /* \"multisend2/FortMultisend.sol\":3398:3407  _balances */\n      dup5\n        /* \"multisend2/FortMultisend.sol\":3408:3409  i */\n      dup4\n        /* \"multisend2/FortMultisend.sol\":3398:3410  _balances[i] */\n      dup2\n      mload\n      dup2\n      lt\n      iszero\n      iszero\n      tag_142\n      jumpi\n      invalid\n    tag_142:\n      swap1\n      0x20\n      add\n      swap1\n      0x20\n      mul\n      add\n      mload\n        /* \"multisend2/FortMultisend.sol\":3372:3411  _contributors[i].transfer(_balances[i]) */\n      swap1\n      dup2\n      iszero\n      mul\n      swap1\n      mload(0x40)\n      0x0\n      mload(0x40)\n      dup1\n      dup4\n      sub\n      dup2\n      dup6\n      dup9\n      dup9\n      call\n      swap4\n      pop\n      pop\n      pop\n      pop\n      iszero\n        /* \"--CODEGEN--\":8:17   */\n      dup1\n        /* \"--CODEGEN--\":5:7   */\n      iszero\n      tag_143\n      jumpi\n        /* \"--CODEGEN--\":45:61   */\n      returndatasize\n        /* \"--CODEGEN--\":42:43   */\n      0x0\n        /* \"--CODEGEN--\":39:40   */\n      dup1\n        /* \"--CODEGEN--\":24:62   */\n      returndatacopy\n        /* \"--CODEGEN--\":77:93   */\n      returndatasize\n        /* \"--CODEGEN--\":74:75   */\n      0x0\n        /* \"--CODEGEN--\":67:94   */\n      revert\n        /* \"--CODEGEN--\":5:7   */\n    tag_143:\n        /* \"multisend2/FortMultisend.sol\":3372:3411  _contributors[i].transfer(_balances[i]) */\n      pop\n        /* \"multisend2/FortMultisend.sol\":3254:3257  i++ */\n      dup1\n      dup1\n      0x1\n      add\n      swap2\n      pop\n      pop\n        /* \"multisend2/FortMultisend.sol\":3208:3422  for (uint256 i = 0; i < _contributors.length; i++) {... */\n      jump(tag_133)\n    tag_134:\n        /* \"multisend2/FortMultisend.sol\":3431:3481  setTxCount(msg.sender, txCount(msg.sender).add(1)) */\n      tag_144\n        /* \"multisend2/FortMultisend.sol\":3442:3452  msg.sender */\n      caller\n        /* \"multisend2/FortMultisend.sol\":3454:3480  txCount(msg.sender).add(1) */\n      tag_145\n        /* \"multisend2/FortMultisend.sol\":3478:3479  1 */\n      0x1\n        /* \"multisend2/FortMultisend.sol\":3454:3473  txCount(msg.sender) */\n      tag_146\n        /* \"multisend2/FortMultisend.sol\":3462:3472  msg.sender */\n      caller\n        /* \"multisend2/FortMultisend.sol\":3454:3461  txCount */\n      tag_59\n        /* \"multisend2/FortMultisend.sol\":3454:3473  txCount(msg.sender) */\n      jump\t// in\n    tag_146:\n        /* \"multisend2/FortMultisend.sol\":3454:3477  txCount(msg.sender).add */\n      tag_100\n      swap1\n        /* \"multisend2/FortMultisend.sol\":3454:3480  txCount(msg.sender).add(1) */\n      swap2\n      swap1\n      0xffffffff\n      and\n      jump\t// in\n    tag_145:\n        /* \"multisend2/FortMultisend.sol\":3431:3441  setTxCount */\n      tag_101\n        /* \"multisend2/FortMultisend.sol\":3431:3481  setTxCount(msg.sender, txCount(msg.sender).add(1)) */\n      jump\t// in\n    tag_144:\n        /* \"multisend2/FortMultisend.sol\":3496:3562  Multisended(msg.value, 0x000000000000000000000000000000000000bEEF) */\n      0x4afd2ce457d973046bd54f5d7d36368546da08b88be1bca8ae50e32b451da17\n        /* \"multisend2/FortMultisend.sol\":3508:3517  msg.value */\n      callvalue\n        /* \"multisend2/FortMultisend.sol\":3519:3561  0x000000000000000000000000000000000000bEEF */\n      0xbeef\n        /* \"multisend2/FortMultisend.sol\":3496:3562  Multisended(msg.value, 0x000000000000000000000000000000000000bEEF) */\n      mload(0x40)\n      dup1\n      dup4\n      dup2\n      mstore\n      0x20\n      add\n      dup3\n      0xffffffffffffffffffffffffffffffffffffffff\n      and\n      0xffffffffffffffffffffffffffffffffffffffff\n      and\n      dup2\n      mstore\n      0x20\n      add\n      swap3\n      pop\n      pop\n      pop\n      mload(0x40)\n      dup1\n      swap2\n      sub\n      swap1\n      log1\n        /* \"multisend2/FortMultisend.sol\":3015:3569  function multisendEther(address[] _contributors, uint256[] _balances)... */\n      pop\n      pop\n      pop\n      pop\n      jump\t// out\n        /* \"multisend2/FortMultisend.sol\":1758:1870  function arrayLimit() public view returns (uint256) {... */\n    tag_56:\n        /* \"multisend2/FortMultisend.sol\":1801:1808  uint256 */\n      0x0\n        /* \"multisend2/FortMultisend.sol\":1827:1838  uintStorage */\n      0x3\n        /* \"multisend2/FortMultisend.sol\":1827:1863  uintStorage[keccak256(\"arrayLimit\")] */\n      0x0\n        /* \"multisend2/FortMultisend.sol\":1839:1862  keccak256(\"arrayLimit\") */\n      mload(0x40)\n      dup1\n      dup1\n      0x61727261794c696d697400000000000000000000000000000000000000000000\n      dup2\n      mstore\n      pop\n      0xa\n      add\n      swap1\n      pop\n      mload(0x40)\n      dup1\n      swap2\n      sub\n      swap1\n      keccak256\n        /* \"multisend2/FortMultisend.sol\":1827:1863  uintStorage[keccak256(\"arrayLimit\")] */\n      not(0x0)\n      and\n      not(0x0)\n      and\n      dup2\n      mstore\n      0x20\n      add\n      swap1\n      dup2\n      mstore\n      0x20\n      add\n      0x0\n      keccak256\n      sload\n        /* \"multisend2/FortMultisend.sol\":1820:1863  return uintStorage[keccak256(\"arrayLimit\")] */\n      swap1\n      pop\n        /* \"multisend2/FortMultisend.sol\":1758:1870  function arrayLimit() public view returns (uint256) {... */\n      swap1\n      jump\t// out\n        /* \"multisend2/FortMultisend.sol\":1620:1752  function txCount(address customer) public view returns (uint256) {... */\n    tag_59:\n        /* \"multisend2/FortMultisend.sol\":1676:1683  uint256 */\n      0x0\n        /* \"multisend2/FortMultisend.sol\":1702:1713  uintStorage */\n      0x3\n        /* \"multisend2/FortMultisend.sol\":1702:1745  uintStorage[keccak256(\"txCount\", customer)] */\n      0x0\n        /* \"multisend2/FortMultisend.sol\":1735:1743  customer */\n      dup4\n        /* \"multisend2/FortMultisend.sol\":1714:1744  keccak256(\"txCount\", customer) */\n      mload(0x40)\n      dup1\n      dup1\n      0x7478436f756e7400000000000000000000000000000000000000000000000000\n      dup2\n      mstore\n      pop\n      0x7\n      add\n      dup3\n      0xffffffffffffffffffffffffffffffffffffffff\n      and\n      0xffffffffffffffffffffffffffffffffffffffff\n      and\n      0x1000000000000000000000000\n      mul\n      dup2\n      mstore\n      0x14\n      add\n      swap2\n      pop\n      pop\n      mload(0x40)\n      dup1\n      swap2\n      sub\n      swap1\n      keccak256\n        /* \"multisend2/FortMultisend.sol\":1702:1745  uintStorage[keccak256(\"txCount\", customer)] */\n      not(0x0)\n      and\n      not(0x0)\n      and\n      dup2\n      mstore\n      0x20\n      add\n      swap1\n      dup2\n      mstore\n      0x20\n      add\n      0x0\n      keccak256\n      sload\n        /* \"multisend2/FortMultisend.sol\":1695:1745  return uintStorage[keccak256(\"txCount\", customer)] */\n      swap1\n      pop\n        /* \"multisend2/FortMultisend.sol\":1620:1752  function txCount(address customer) public view returns (uint256) {... */\n      swap2\n      swap1\n      pop\n      jump\t// out\n        /* \"multisend2/FortMultisend.sol\":1384:1402  uint256 public fee */\n    tag_62:\n      sload(0x9)\n      dup2\n      jump\t// out\n        /* \"multisend2/FortMultisend.sol\":3575:3833  function claimTokens(address _token) public onlyOwner {... */\n    tag_65:\n        /* \"multisend2/FortMultisend.sol\":3639:3655  ERC20 erc20token */\n      0x0\n        /* \"multisend2/FortMultisend.sol\":3681:3696  uint256 balance */\n      dup1\n        /* \"multisend2/Ownable.sol\":710:717  owner() */\n      tag_150\n        /* \"multisend2/Ownable.sol\":710:715  owner */\n      tag_51\n        /* \"multisend2/Ownable.sol\":710:717  owner() */\n      jump\t// in\n    tag_150:\n        /* \"multisend2/Ownable.sol\":696:717  msg.sender == owner() */\n      0xffffffffffffffffffffffffffffffffffffffff\n      and\n        /* \"multisend2/Ownable.sol\":696:706  msg.sender */\n      caller\n        /* \"multisend2/Ownable.sol\":696:717  msg.sender == owner() */\n      0xffffffffffffffffffffffffffffffffffffffff\n      and\n      eq\n        /* \"multisend2/Ownable.sol\":688:718  require(msg.sender == owner()) */\n      iszero\n      iszero\n      tag_151\n      jumpi\n      0x0\n      dup1\n      revert\n    tag_151:\n        /* \"multisend2/FortMultisend.sol\":3664:3670  _token */\n      dup3\n        /* \"multisend2/FortMultisend.sol\":3639:3671  ERC20 erc20token = ERC20(_token) */\n      swap2\n      pop\n        /* \"multisend2/FortMultisend.sol\":3699:3709  erc20token */\n      dup2\n        /* \"multisend2/FortMultisend.sol\":3699:3719  erc20token.balanceOf */\n      0xffffffffffffffffffffffffffffffffffffffff\n      and\n      0x70a08231\n        /* \"multisend2/FortMultisend.sol\":3720:3724  this */\n      address\n        /* \"multisend2/FortMultisend.sol\":3699:3725  erc20token.balanceOf(this) */\n      mload(0x40)\n      dup3\n      0xffffffff\n      and\n      0x100000000000000000000000000000000000000000000000000000000\n      mul\n      dup2\n      mstore\n      0x4\n      add\n      dup1\n      dup3\n      0xffffffffffffffffffffffffffffffffffffffff\n      and\n      0xffffffffffffffffffffffffffffffffffffffff\n      and\n      dup2\n      mstore\n      0x20\n      add\n      swap2\n      pop\n      pop\n      0x20\n      mload(0x40)\n      dup1\n      dup4\n      sub\n      dup2\n      0x0\n      dup8\n      dup1\n      extcodesize\n      iszero\n        /* \"--CODEGEN--\":8:17   */\n      dup1\n        /* \"--CODEGEN--\":5:7   */\n      iszero\n      tag_153\n      jumpi\n        /* \"--CODEGEN--\":30:31   */\n      0x0\n        /* \"--CODEGEN--\":27:28   */\n      dup1\n        /* \"--CODEGEN--\":20:32   */\n      revert\n        /* \"--CODEGEN--\":5:7   */\n    tag_153:\n        /* \"multisend2/FortMultisend.sol\":3699:3725  erc20token.balanceOf(this) */\n      pop\n      gas\n      call\n      iszero\n        /* \"--CODEGEN--\":8:17   */\n      dup1\n        /* \"--CODEGEN--\":5:7   */\n      iszero\n      tag_154\n      jumpi\n        /* \"--CODEGEN--\":45:61   */\n      returndatasize\n        /* \"--CODEGEN--\":42:43   */\n      0x0\n        /* \"--CODEGEN--\":39:40   */\n      dup1\n        /* \"--CODEGEN--\":24:62   */\n      returndatacopy\n        /* \"--CODEGEN--\":77:93   */\n      returndatasize\n        /* \"--CODEGEN--\":74:75   */\n      0x0\n        /* \"--CODEGEN--\":67:94   */\n      revert\n        /* \"--CODEGEN--\":5:7   */\n    tag_154:\n        /* \"multisend2/FortMultisend.sol\":3699:3725  erc20token.balanceOf(this) */\n      pop\n      pop\n      pop\n      pop\n      mload(0x40)\n      returndatasize\n        /* \"--CODEGEN--\":13:15   */\n      0x20\n        /* \"--CODEGEN--\":8:11   */\n      dup2\n        /* \"--CODEGEN--\":5:16   */\n      lt\n        /* \"--CODEGEN--\":2:4   */\n      iszero\n      tag_155\n      jumpi\n        /* \"--CODEGEN--\":29:30   */\n      0x0\n        /* \"--CODEGEN--\":26:27   */\n      dup1\n        /* \"--CODEGEN--\":19:31   */\n      revert\n        /* \"--CODEGEN--\":2:4   */\n    tag_155:\n        /* \"multisend2/FortMultisend.sol\":3699:3725  erc20token.balanceOf(this) */\n      dup2\n      add\n      swap1\n      dup1\n      dup1\n      mload\n      swap1\n      0x20\n      add\n      swap1\n      swap3\n      swap2\n      swap1\n      pop\n      pop\n      pop\n        /* \"multisend2/FortMultisend.sol\":3681:3725  uint256 balance = erc20token.balanceOf(this) */\n      swap1\n      pop\n        /* \"multisend2/FortMultisend.sol\":3735:3745  erc20token */\n      dup2\n        /* \"multisend2/FortMultisend.sol\":3735:3754  erc20token.transfer */\n      0xffffffffffffffffffffffffffffffffffffffff\n      and\n      0xa9059cbb\n        /* \"multisend2/FortMultisend.sol\":3755:3762  owner() */\n      tag_156\n        /* \"multisend2/FortMultisend.sol\":3755:3760  owner */\n      tag_51\n        /* \"multisend2/FortMultisend.sol\":3755:3762  owner() */\n      jump\t// in\n    tag_156:\n        /* \"multisend2/FortMultisend.sol\":3764:3771  balance */\n      dup4\n        /* \"multisend2/FortMultisend.sol\":3735:3772  erc20token.transfer(owner(), balance) */\n      mload(0x40)\n      dup4\n      0xffffffff\n      and\n      0x100000000000000000000000000000000000000000000000000000000\n      mul\n      dup2\n      mstore\n      0x4\n      add\n      dup1\n      dup4\n      0xffffffffffffffffffffffffffffffffffffffff\n      and\n      0xffffffffffffffffffffffffffffffffffffffff\n      and\n      dup2\n      mstore\n      0x20\n      add\n      dup3\n      dup2\n      mstore\n      0x20\n      add\n      swap3\n      pop\n      pop\n      pop\n      0x20\n      mload(0x40)\n      dup1\n      dup4\n      sub\n      dup2\n      0x0\n      dup8\n      dup1\n      extcodesize\n      iszero\n        /* \"--CODEGEN--\":8:17   */\n      dup1\n        /* \"--CODEGEN--\":5:7   */\n      iszero\n      tag_157\n      jumpi\n        /* \"--CODEGEN--\":30:31   */\n      0x0\n        /* \"--CODEGEN--\":27:28   */\n      dup1\n        /* \"--CODEGEN--\":20:32   */\n      revert\n        /* \"--CODEGEN--\":5:7   */\n    tag_157:\n        /* \"multisend2/FortMultisend.sol\":3735:3772  erc20token.transfer(owner(), balance) */\n      pop\n      gas\n      call\n      iszero\n        /* \"--CODEGEN--\":8:17   */\n      dup1\n        /* \"--CODEGEN--\":5:7   */\n      iszero\n      tag_158\n      jumpi\n        /* \"--CODEGEN--\":45:61   */\n      returndatasize\n        /* \"--CODEGEN--\":42:43   */\n      0x0\n        /* \"--CODEGEN--\":39:40   */\n      dup1\n        /* \"--CODEGEN--\":24:62   */\n      returndatacopy\n        /* \"--CODEGEN--\":77:93   */\n      returndatasize\n        /* \"--CODEGEN--\":74:75   */\n      0x0\n        /* \"--CODEGEN--\":67:94   */\n      revert\n        /* \"--CODEGEN--\":5:7   */\n    tag_158:\n        /* \"multisend2/FortMultisend.sol\":3735:3772  erc20token.transfer(owner(), balance) */\n      pop\n      pop\n      pop\n      pop\n      mload(0x40)\n      returndatasize\n        /* \"--CODEGEN--\":13:15   */\n      0x20\n        /* \"--CODEGEN--\":8:11   */\n      dup2\n        /* \"--CODEGEN--\":5:16   */\n      lt\n        /* \"--CODEGEN--\":2:4   */\n      iszero\n      tag_159\n      jumpi\n        /* \"--CODEGEN--\":29:30   */\n      0x0\n        /* \"--CODEGEN--\":26:27   */\n      dup1\n        /* \"--CODEGEN--\":19:31   */\n      revert\n        /* \"--CODEGEN--\":2:4   */\n    tag_159:\n        /* \"multisend2/FortMultisend.sol\":3735:3772  erc20token.transfer(owner(), balance) */\n      dup2\n      add\n      swap1\n      dup1\n      dup1\n      mload\n      swap1\n      0x20\n      add\n      swap1\n      swap3\n      swap2\n      swap1\n      pop\n      pop\n      pop\n      pop\n        /* \"multisend2/FortMultisend.sol\":3787:3826  ClaimedTokens(_token, owner(), balance) */\n      0xf931edb47c50b4b4104c187b5814a9aef5f709e17e2ecf9617e860cacade929c\n        /* \"multisend2/FortMultisend.sol\":3801:3807  _token */\n      dup4\n        /* \"multisend2/FortMultisend.sol\":3809:3816  owner() */\n      tag_160\n        /* \"multisend2/FortMultisend.sol\":3809:3814  owner */\n      tag_51\n        /* \"multisend2/FortMultisend.sol\":3809:3816  owner() */\n      jump\t// in\n    tag_160:\n        /* \"multisend2/FortMultisend.sol\":3818:3825  balance */\n      dup4\n        /* \"multisend2/FortMultisend.sol\":3787:3826  ClaimedTokens(_token, owner(), balance) */\n      mload(0x40)\n      dup1\n      dup5\n      0xffffffffffffffffffffffffffffffffffffffff\n      and\n      0xffffffffffffffffffffffffffffffffffffffff\n      and\n      dup2\n      mstore\n      0x20\n      add\n      dup4\n      0xffffffffffffffffffffffffffffffffffffffff\n      and\n      0xffffffffffffffffffffffffffffffffffffffff\n      and\n      dup2\n      mstore\n      0x20\n      add\n      dup3\n      dup2\n      mstore\n      0x20\n      add\n      swap4\n      pop\n      pop\n      pop\n      pop\n      mload(0x40)\n      dup1\n      swap2\n      sub\n      swap1\n      log1\n        /* \"multisend2/FortMultisend.sol\":3575:3833  function claimTokens(address _token) public onlyOwner {... */\n      pop\n      pop\n      pop\n      jump\t// out\n        /* \"multisend2/Claimable.sol\":388:507  function pendingOwner() public view returns (address) {... */\n    tag_68:\n        /* \"multisend2/Claimable.sol\":433:440  address */\n      0x0\n        /* \"multisend2/Claimable.sol\":459:473  addressStorage */\n      0x5\n        /* \"multisend2/Claimable.sol\":459:500  addressStorage[keccak256(\"pendingOwner\")] */\n      0x0\n        /* \"multisend2/Claimable.sol\":474:499  keccak256(\"pendingOwner\") */\n      mload(0x40)\n      dup1\n      dup1\n      0x70656e64696e674f776e65720000000000000000000000000000000000000000\n      dup2\n      mstore\n      pop\n      0xc\n      add\n      swap1\n      pop\n      mload(0x40)\n      dup1\n      swap2\n      sub\n      swap1\n      keccak256\n        /* \"multisend2/Claimable.sol\":459:500  addressStorage[keccak256(\"pendingOwner\")] */\n      not(0x0)\n      and\n      not(0x0)\n      and\n      dup2\n      mstore\n      0x20\n      add\n      swap1\n      dup2\n      mstore\n      0x20\n      add\n      0x0\n      keccak256\n      0x0\n      swap1\n      sload\n      swap1\n      0x100\n      exp\n      swap1\n      div\n      0xffffffffffffffffffffffffffffffffffffffff\n      and\n        /* \"multisend2/Claimable.sol\":452:500  return addressStorage[keccak256(\"pendingOwner\")] */\n      swap1\n      pop\n        /* \"multisend2/Claimable.sol\":388:507  function pendingOwner() public view returns (address) {... */\n      swap1\n      jump\t// out\n        /* \"multisend2/FortMultisend.sol\":1876:2033  function setArrayLimit(uint256 _newLimit) public onlyOwner {... */\n    tag_71:\n        /* \"multisend2/Ownable.sol\":710:717  owner() */\n      tag_163\n        /* \"multisend2/Ownable.sol\":710:715  owner */\n      tag_51\n        /* \"multisend2/Ownable.sol\":710:717  owner() */\n      jump\t// in\n    tag_163:\n        /* \"multisend2/Ownable.sol\":696:717  msg.sender == owner() */\n      0xffffffffffffffffffffffffffffffffffffffff\n      and\n        /* \"multisend2/Ownable.sol\":696:706  msg.sender */\n      caller\n        /* \"multisend2/Ownable.sol\":696:717  msg.sender == owner() */\n      0xffffffffffffffffffffffffffffffffffffffff\n      and\n      eq\n        /* \"multisend2/Ownable.sol\":688:718  require(msg.sender == owner()) */\n      iszero\n      iszero\n      tag_164\n      jumpi\n      0x0\n      dup1\n      revert\n    tag_164:\n        /* \"multisend2/FortMultisend.sol\":1966:1967  0 */\n      0x0\n        /* \"multisend2/FortMultisend.sol\":1953:1962  _newLimit */\n      dup2\n        /* \"multisend2/FortMultisend.sol\":1953:1967  _newLimit != 0 */\n      eq\n      iszero\n        /* \"multisend2/FortMultisend.sol\":1945:1968  require(_newLimit != 0) */\n      iszero\n      iszero\n      tag_166\n      jumpi\n      0x0\n      dup1\n      revert\n    tag_166:\n        /* \"multisend2/FortMultisend.sol\":2017:2026  _newLimit */\n      dup1\n        /* \"multisend2/FortMultisend.sol\":1978:1989  uintStorage */\n      0x3\n        /* \"multisend2/FortMultisend.sol\":1978:2014  uintStorage[keccak256(\"arrayLimit\")] */\n      0x0\n        /* \"multisend2/FortMultisend.sol\":1990:2013  keccak256(\"arrayLimit\") */\n      mload(0x40)\n      dup1\n      dup1\n      0x61727261794c696d697400000000000000000000000000000000000000000000\n      dup2\n      mstore\n      pop\n      0xa\n      add\n      swap1\n      pop\n      mload(0x40)\n      dup1\n      swap2\n      sub\n      swap1\n      keccak256\n        /* \"multisend2/FortMultisend.sol\":1978:2014  uintStorage[keccak256(\"arrayLimit\")] */\n      not(0x0)\n      and\n      not(0x0)\n      and\n      dup2\n      mstore\n      0x20\n      add\n      swap1\n      dup2\n      mstore\n      0x20\n      add\n      0x0\n      keccak256\n        /* \"multisend2/FortMultisend.sol\":1978:2026  uintStorage[keccak256(\"arrayLimit\")] = _newLimit */\n      dup2\n      swap1\n      sstore\n      pop\n        /* \"multisend2/FortMultisend.sol\":1876:2033  function setArrayLimit(uint256 _newLimit) public onlyOwner {... */\n      pop\n      jump\t// out\n        /* \"multisend2/Claimable.sol\":852:1024  function transferOwnership(address newOwner) public onlyOwner {... */\n    tag_74:\n        /* \"multisend2/Ownable.sol\":710:717  owner() */\n      tag_168\n        /* \"multisend2/Ownable.sol\":710:715  owner */\n      tag_51\n        /* \"multisend2/Ownable.sol\":710:717  owner() */\n      jump\t// in\n    tag_168:\n        /* \"multisend2/Ownable.sol\":696:717  msg.sender == owner() */\n      0xffffffffffffffffffffffffffffffffffffffff\n      and\n        /* \"multisend2/Ownable.sol\":696:706  msg.sender */\n      caller\n        /* \"multisend2/Ownable.sol\":696:717  msg.sender == owner() */\n      0xffffffffffffffffffffffffffffffffffffffff\n      and\n      eq\n        /* \"multisend2/Ownable.sol\":688:718  require(msg.sender == owner()) */\n      iszero\n      iszero\n      tag_169\n      jumpi\n      0x0\n      dup1\n      revert\n    tag_169:\n        /* \"multisend2/Claimable.sol\":952:953  0 */\n      0x0\n        /* \"multisend2/Claimable.sol\":932:954  newOwner != address(0) */\n      0xffffffffffffffffffffffffffffffffffffffff\n      and\n        /* \"multisend2/Claimable.sol\":932:940  newOwner */\n      dup2\n        /* \"multisend2/Claimable.sol\":932:954  newOwner != address(0) */\n      0xffffffffffffffffffffffffffffffffffffffff\n      and\n      eq\n      iszero\n        /* \"multisend2/Claimable.sol\":924:955  require(newOwner != address(0)) */\n      iszero\n      iszero\n      tag_171\n      jumpi\n      0x0\n      dup1\n      revert\n    tag_171:\n        /* \"multisend2/Claimable.sol\":1009:1017  newOwner */\n      dup1\n        /* \"multisend2/Claimable.sol\":965:979  addressStorage */\n      0x5\n        /* \"multisend2/Claimable.sol\":965:1006  addressStorage[keccak256(\"pendingOwner\")] */\n      0x0\n        /* \"multisend2/Claimable.sol\":980:1005  keccak256(\"pendingOwner\") */\n      mload(0x40)\n      dup1\n      dup1\n      0x70656e64696e674f776e65720000000000000000000000000000000000000000\n      dup2\n      mstore\n      pop\n      0xc\n      add\n      swap1\n      pop\n      mload(0x40)\n      dup1\n      swap2\n      sub\n      swap1\n      keccak256\n        /* \"multisend2/Claimable.sol\":965:1006  addressStorage[keccak256(\"pendingOwner\")] */\n      not(0x0)\n      and\n      not(0x0)\n      and\n      dup2\n      mstore\n      0x20\n      add\n      swap1\n      dup2\n      mstore\n      0x20\n      add\n      0x0\n      keccak256\n      0x0\n        /* \"multisend2/Claimable.sol\":965:1017  addressStorage[keccak256(\"pendingOwner\")] = newOwner */\n      0x100\n      exp\n      dup2\n      sload\n      dup2\n      0xffffffffffffffffffffffffffffffffffffffff\n      mul\n      not\n      and\n      swap1\n      dup4\n      0xffffffffffffffffffffffffffffffffffffffff\n      and\n      mul\n      or\n      swap1\n      sstore\n      pop\n        /* \"multisend2/Claimable.sol\":852:1024  function transferOwnership(address newOwner) public onlyOwner {... */\n      pop\n      jump\t// out\n        /* \"multisend2/SafeMath.sol\":923:1033  function sub(uint256 a, uint256 b) internal pure returns (uint256) {... */\n    tag_86:\n        /* \"multisend2/SafeMath.sol\":981:988  uint256 */\n      0x0\n        /* \"multisend2/SafeMath.sol\":1008:1009  a */\n      dup3\n        /* \"multisend2/SafeMath.sol\":1003:1004  b */\n      dup3\n        /* \"multisend2/SafeMath.sol\":1003:1009  b <= a */\n      gt\n      iszero\n        /* \"multisend2/SafeMath.sol\":996:1010  assert(b <= a) */\n      iszero\n      iszero\n      tag_173\n      jumpi\n      invalid\n    tag_173:\n        /* \"multisend2/SafeMath.sol\":1027:1028  b */\n      dup2\n        /* \"multisend2/SafeMath.sol\":1023:1024  a */\n      dup4\n        /* \"multisend2/SafeMath.sol\":1023:1028  a - b */\n      sub\n        /* \"multisend2/SafeMath.sol\":1016:1028  return a - b */\n      swap1\n      pop\n        /* \"multisend2/SafeMath.sol\":923:1033  function sub(uint256 a, uint256 b) internal pure returns (uint256) {... */\n      swap3\n      swap2\n      pop\n      pop\n      jump\t// out\n        /* \"multisend2/SafeMath.sol\":1095:1224  function add(uint256 a, uint256 b) internal pure returns (uint256) {... */\n    tag_100:\n        /* \"multisend2/SafeMath.sol\":1153:1160  uint256 */\n      0x0\n        /* \"multisend2/SafeMath.sol\":1168:1177  uint256 c */\n      dup1\n        /* \"multisend2/SafeMath.sol\":1184:1185  b */\n      dup3\n        /* \"multisend2/SafeMath.sol\":1180:1181  a */\n      dup5\n        /* \"multisend2/SafeMath.sol\":1180:1185  a + b */\n      add\n        /* \"multisend2/SafeMath.sol\":1168:1185  uint256 c = a + b */\n      swap1\n      pop\n        /* \"multisend2/SafeMath.sol\":1203:1204  a */\n      dup4\n        /* \"multisend2/SafeMath.sol\":1198:1199  c */\n      dup2\n        /* \"multisend2/SafeMath.sol\":1198:1204  c >= a */\n      lt\n      iszero\n        /* \"multisend2/SafeMath.sol\":1191:1205  assert(c >= a) */\n      iszero\n      iszero\n      tag_175\n      jumpi\n      invalid\n    tag_175:\n        /* \"multisend2/SafeMath.sol\":1218:1219  c */\n      dup1\n        /* \"multisend2/SafeMath.sol\":1211:1219  return c */\n      swap2\n      pop\n        /* \"multisend2/SafeMath.sol\":1095:1224  function add(uint256 a, uint256 b) internal pure returns (uint256) {... */\n      pop\n      swap3\n      swap2\n      pop\n      pop\n      jump\t// out\n        /* \"multisend2/FortMultisend.sol\":3995:4130  function setTxCount(address customer, uint256 _txCount) private {... */\n    tag_101:\n        /* \"multisend2/FortMultisend.sol\":4115:4123  _txCount */\n      dup1\n        /* \"multisend2/FortMultisend.sol\":4069:4080  uintStorage */\n      0x3\n        /* \"multisend2/FortMultisend.sol\":4069:4112  uintStorage[keccak256(\"txCount\", customer)] */\n      0x0\n        /* \"multisend2/FortMultisend.sol\":4102:4110  customer */\n      dup5\n        /* \"multisend2/FortMultisend.sol\":4081:4111  keccak256(\"txCount\", customer) */\n      mload(0x40)\n      dup1\n      dup1\n      0x7478436f756e7400000000000000000000000000000000000000000000000000\n      dup2\n      mstore\n      pop\n      0x7\n      add\n      dup3\n      0xffffffffffffffffffffffffffffffffffffffff\n      and\n      0xffffffffffffffffffffffffffffffffffffffff\n      and\n      0x1000000000000000000000000\n      mul\n      dup2\n      mstore\n      0x14\n      add\n      swap2\n      pop\n      pop\n      mload(0x40)\n      dup1\n      swap2\n      sub\n      swap1\n      keccak256\n        /* \"multisend2/FortMultisend.sol\":4069:4112  uintStorage[keccak256(\"txCount\", customer)] */\n      not(0x0)\n      and\n      not(0x0)\n      and\n      dup2\n      mstore\n      0x20\n      add\n      swap1\n      dup2\n      mstore\n      0x20\n      add\n      0x0\n      keccak256\n        /* \"multisend2/FortMultisend.sol\":4069:4123  uintStorage[keccak256(\"txCount\", customer)] = _txCount */\n      dup2\n      swap1\n      sstore\n      pop\n        /* \"multisend2/FortMultisend.sol\":3995:4130  function setTxCount(address customer, uint256 _txCount) private {... */\n      pop\n      pop\n      jump\t// out\n\n    auxdata: 0xa165627a7a723058204a6effef29cef49bb53aa60089a7b5ccfcde1b5dde01d8c988ef962020b134550029\n}\n",
				"bytecode": {
					"linkReferences": {},
					"object": "60806040523480156200001157600080fd5b506200002c33620000be640100000000026401000000009004565b62000047605b620001ff640100000000026401000000009004565b600060098190555060016007600060405180807f72735f6d756c746973656e6465725f696e697469616c697a6564000000000000815250601a01905060405180910390206000191660001916815260200190815260200160002060006101000a81548160ff02191690831515021790555062000333565b7f8be0079c531659141344cd1fd0a4f28419497f9722a3daafe3b4186f6b6457e0620000f8620002bb640100000000026401000000009004565b82604051808373ffffffffffffffffffffffffffffffffffffffff1673ffffffffffffffffffffffffffffffffffffffff1681526020018273ffffffffffffffffffffffffffffffffffffffff1673ffffffffffffffffffffffffffffffffffffffff1681526020019250505060405180910390a1806005600060405180807f6f776e6572000000000000000000000000000000000000000000000000000000815250600501905060405180910390206000191660001916815260200190815260200160002060006101000a81548173ffffffffffffffffffffffffffffffffffffffff021916908373ffffffffffffffffffffffffffffffffffffffff16021790555050565b62000218620002bb640100000000026401000000009004565b73ffffffffffffffffffffffffffffffffffffffff163373ffffffffffffffffffffffffffffffffffffffff161415156200025257600080fd5b600081141515156200026357600080fd5b806003600060405180807f61727261794c696d697400000000000000000000000000000000000000000000815250600a0190506040518091039020600019166000191681526020019081526020016000208190555050565b60006005600060405180807f6f776e6572000000000000000000000000000000000000000000000000000000815250600501905060405180910390206000191660001916815260200190815260200160002060009054906101000a900473ffffffffffffffffffffffffffffffffffffffff16905090565b61183480620003436000396000f3006080604052600436106100f1576000357c0100000000000000000000000000000000000000000000000000000000900463ffffffff1680630b66f3f5146100f35780632ded3227146101bc5780634e71e0c8146101d357806354fd4d50146101ea5780635c60da1b1461027a57806367272999146102d15780636ab35b2e146102e85780636fde8202146102ff5780638da5cb5b14610356578063ab883d28146103ad578063b4ae641c14610449578063c1258f6914610474578063ddca3f43146104cb578063df8de3e7146104f6578063e30c397814610539578063ee8a0a3014610590578063f2fde38b146105bd575b005b3480156100ff57600080fd5b506101ba600480360381019080803573ffffffffffffffffffffffffffffffffffffffff1690602001909291908035906020019082018035906020019080806020026020016040519081016040528093929190818152602001838360200280828437820191505050505050919291929080359060200190820180359060200190808060200260200160405190810160405280939291908181526020018383602002808284378201915050505050509192919290505050610600565b005b3480156101c857600080fd5b506101d16109fc565b005b3480156101df57600080fd5b506101e8610a47565b005b3480156101f657600080fd5b506101ff610cbe565b6040518080602001828103825283818151815260200191508051906020019080838360005b8381101561023f578082015181840152602081019050610224565b50505050905090810190601f16801561026c5780820380516001836020036101000a031916815260200191505b509250505060405180910390f35b34801561028657600080fd5b5061028f610d60565b604051808273ffffffffffffffffffffffffffffffffffffffff1673ffffffffffffffffffffffffffffffffffffffff16815260200191505060405180910390f35b3480156102dd57600080fd5b506102e6610d8a565b005b3480156102f457600080fd5b506102fd610ebb565b005b34801561030b57600080fd5b50610314610f06565b604051808273ffffffffffffffffffffffffffffffffffffffff1673ffffffffffffffffffffffffffffffffffffffff16815260200191505060405180910390f35b34801561036257600080fd5b5061036b610f2f565b604051808273ffffffffffffffffffffffffffffffffffffffff1673ffffffffffffffffffffffffffffffffffffffff16815260200191505060405180910390f35b6104476004803603810190808035906020019082018035906020019080806020026020016040519081016040528093929190818152602001838360200280828437820191505050505050919291929080359060200190820180359060200190808060200260200160405190810160405280939291908181526020018383602002808284378201915050505050509192919290505050610fa7565b005b34801561045557600080fd5b5061045e61115a565b6040518082815260200191505060405180910390f35b34801561048057600080fd5b506104b5600480360381019080803573ffffffffffffffffffffffffffffffffffffffff1690602001909291905050506111b2565b6040518082815260200191505060405180910390f35b3480156104d757600080fd5b506104e061124f565b6040518082815260200191505060405180910390f35b34801561050257600080fd5b50610537600480360381019080803573ffffffffffffffffffffffffffffffffffffffff169060200190929190505050611255565b005b34801561054557600080fd5b5061054e611505565b604051808273ffffffffffffffffffffffffffffffffffffffff1673ffffffffffffffffffffffffffffffffffffffff16815260200191505060405180910390f35b34801561059c57600080fd5b506105bb6004803603810190808035906020019092919050505061157d565b005b3480156105c957600080fd5b506105fe600480360381019080803573ffffffffffffffffffffffffffffffffffffffff169060200190929190505050611626565b005b6000806000806000809450600093506000925061061b61115a565b87511115151561062a57600080fd5b879150600090505b86518160ff16101561084a57858160ff1681518110151561064f57fe5b90602001906020020151840193506103e8600954878360ff1681518110151561067457fe5b906020019060200201510281151561068857fe5b0492506106b883878360ff168151811015156106a057fe5b9060200190602002015161173590919063ffffffff16565b868260ff168151811015156106c957fe5b90602001906020020181815250508173ffffffffffffffffffffffffffffffffffffffff166323b872dd33898460ff1681518110151561070557fe5b90602001906020020151898560ff1681518110151561072057fe5b906020019060200201516040518463ffffffff167c0100000000000000000000000000000000000000000000000000000000028152600401808473ffffffffffffffffffffffffffffffffffffffff1673ffffffffffffffffffffffffffffffffffffffff1681526020018373ffffffffffffffffffffffffffffffffffffffff1673ffffffffffffffffffffffffffffffffffffffff1681526020018281526020019350505050602060405180830381600087803b1580156107e257600080fd5b505af11580156107f6573d6000803e3d6000fd5b505050506040513d602081101561080c57600080fd5b810190808051906020019092919050505050858160ff1681518110151561082f57fe5b90602001906020020151850194508080600101915050610632565b84840393508173ffffffffffffffffffffffffffffffffffffffff166323b872dd3330876040518463ffffffff167c0100000000000000000000000000000000000000000000000000000000028152600401808473ffffffffffffffffffffffffffffffffffffffff1673ffffffffffffffffffffffffffffffffffffffff1681526020018373ffffffffffffffffffffffffffffffffffffffff1673ffffffffffffffffffffffffffffffffffffffff1681526020018281526020019350505050602060405180830381600087803b15801561092657600080fd5b505af115801561093a573d6000803e3d6000fd5b505050506040513d602081101561095057600080fd5b810190808051906020019092919050505050610987336109826001610974336111b2565b61174e90919063ffffffff16565b61176c565b7f04afd2ce457d973046bd54f5d7d36368546da08b88be1bca8ae50e32b451da178589604051808381526020018273ffffffffffffffffffffffffffffffffffffffff1673ffffffffffffffffffffffffffffffffffffffff1681526020019250505060405180910390a15050505050505050565b610a04610f2f565b73ffffffffffffffffffffffffffffffffffffffff163373ffffffffffffffffffffffffffffffffffffffff16141515610a3d57600080fd5b6005600981905550565b610a4f611505565b73ffffffffffffffffffffffffffffffffffffffff163373ffffffffffffffffffffffffffffffffffffffff16141515610a8857600080fd5b7f8be0079c531659141344cd1fd0a4f28419497f9722a3daafe3b4186f6b6457e0610ab1610f2f565b610ab9611505565b604051808373ffffffffffffffffffffffffffffffffffffffff1673ffffffffffffffffffffffffffffffffffffffff1681526020018273ffffffffffffffffffffffffffffffffffffffff1673ffffffffffffffffffffffffffffffffffffffff1681526020019250505060405180910390a16005600060405180807f70656e64696e674f776e65720000000000000000000000000000000000000000815250600c01905060405180910390206000191660001916815260200190815260200160002060009054906101000a900473ffffffffffffffffffffffffffffffffffffffff166005600060405180807f6f776e6572000000000000000000000000000000000000000000000000000000815250600501905060405180910390206000191660001916815260200190815260200160002060006101000a81548173ffffffffffffffffffffffffffffffffffffffff021916908373ffffffffffffffffffffffffffffffffffffffff16021790555060006005600060405180807f70656e64696e674f776e65720000000000000000000000000000000000000000815250600c01905060405180910390206000191660001916815260200190815260200160002060006101000a81548173ffffffffffffffffffffffffffffffffffffffff021916908373ffffffffffffffffffffffffffffffffffffffff160217905550565b606060018054600181600116156101000203166002900480601f016020809104026020016040519081016040528092919081815260200182805460018160011615610100020316600290048015610d565780601f10610d2b57610100808354040283529160200191610d56565b820191906000526020600020905b815481529060010190602001808311610d3957829003601f168201915b5050505050905090565b6000600260009054906101000a900473ffffffffffffffffffffffffffffffffffffffff16905090565b610d92610f2f565b73ffffffffffffffffffffffffffffffffffffffff163373ffffffffffffffffffffffffffffffffffffffff16141515610dcb57600080fd5b610dd3610f2f565b73ffffffffffffffffffffffffffffffffffffffff166108fc3073ffffffffffffffffffffffffffffffffffffffff16319081150290604051600060405180830381858888f19350505050158015610e2f573d6000803e3d6000fd5b507f9f413f0f451c24edeec8f50838056a8d47c9d8ea0226e5a536392f677a310ad5610e59610f2f565b3073ffffffffffffffffffffffffffffffffffffffff1631604051808373ffffffffffffffffffffffffffffffffffffffff1673ffffffffffffffffffffffffffffffffffffffff1681526020018281526020019250505060405180910390a1565b610ec3610f2f565b73ffffffffffffffffffffffffffffffffffffffff163373ffffffffffffffffffffffffffffffffffffffff16141515610efc57600080fd5b6000600981905550565b60008060009054906101000a900473ffffffffffffffffffffffffffffffffffffffff16905090565b60006005600060405180807f6f776e6572000000000000000000000000000000000000000000000000000000815250600501905060405180910390206000191660001916815260200190815260200160002060009054906101000a900473ffffffffffffffffffffffffffffffffffffffff16905090565b600080610fb261115a565b845111151515610fc157600080fd5b600090505b83518110156110c2576103e86009548483815181101515610fe357fe5b9060200190602002015102811515610ff757fe5b04915061102482848381518110151561100c57fe5b9060200190602002015161173590919063ffffffff16565b838281518110151561103257fe5b9060200190602002018181525050838181518110151561104e57fe5b9060200190602002015173ffffffffffffffffffffffffffffffffffffffff166108fc848381518110151561107f57fe5b906020019060200201519081150290604051600060405180830381858888f193505050501580156110b4573d6000803e3d6000fd5b508080600101915050610fc6565b6110e7336110e260016110d4336111b2565b61174e90919063ffffffff16565b61176c565b7f04afd2ce457d973046bd54f5d7d36368546da08b88be1bca8ae50e32b451da173461beef604051808381526020018273ffffffffffffffffffffffffffffffffffffffff1673ffffffffffffffffffffffffffffffffffffffff1681526020019250505060405180910390a150505050565b60006003600060405180807f61727261794c696d697400000000000000000000000000000000000000000000815250600a01905060405180910390206000191660001916815260200190815260200160002054905090565b6000600360008360405180807f7478436f756e74000000000000000000000000000000000000000000000000008152506007018273ffffffffffffffffffffffffffffffffffffffff1673ffffffffffffffffffffffffffffffffffffffff166c01000000000000000000000000028152601401915050604051809103902060001916600019168152602001908152602001600020549050919050565b60095481565b600080611260610f2f565b73ffffffffffffffffffffffffffffffffffffffff163373ffffffffffffffffffffffffffffffffffffffff1614151561129957600080fd5b8291508173ffffffffffffffffffffffffffffffffffffffff166370a08231306040518263ffffffff167c0100000000000000000000000000000000000000000000000000000000028152600401808273ffffffffffffffffffffffffffffffffffffffff1673ffffffffffffffffffffffffffffffffffffffff168152602001915050602060405180830381600087803b15801561133757600080fd5b505af115801561134b573d6000803e3d6000fd5b505050506040513d602081101561136157600080fd5b810190808051906020019092919050505090508173ffffffffffffffffffffffffffffffffffffffff1663a9059cbb611398610f2f565b836040518363ffffffff167c0100000000000000000000000000000000000000000000000000000000028152600401808373ffffffffffffffffffffffffffffffffffffffff1673ffffffffffffffffffffffffffffffffffffffff16815260200182815260200192505050602060405180830381600087803b15801561141e57600080fd5b505af1158015611432573d6000803e3d6000fd5b505050506040513d602081101561144857600080fd5b8101908080519060200190929190505050507ff931edb47c50b4b4104c187b5814a9aef5f709e17e2ecf9617e860cacade929c83611484610f2f565b83604051808473ffffffffffffffffffffffffffffffffffffffff1673ffffffffffffffffffffffffffffffffffffffff1681526020018373ffffffffffffffffffffffffffffffffffffffff1673ffffffffffffffffffffffffffffffffffffffff168152602001828152602001935050505060405180910390a1505050565b60006005600060405180807f70656e64696e674f776e65720000000000000000000000000000000000000000815250600c01905060405180910390206000191660001916815260200190815260200160002060009054906101000a900473ffffffffffffffffffffffffffffffffffffffff16905090565b611585610f2f565b73ffffffffffffffffffffffffffffffffffffffff163373ffffffffffffffffffffffffffffffffffffffff161415156115be57600080fd5b600081141515156115ce57600080fd5b806003600060405180807f61727261794c696d697400000000000000000000000000000000000000000000815250600a0190506040518091039020600019166000191681526020019081526020016000208190555050565b61162e610f2f565b73ffffffffffffffffffffffffffffffffffffffff163373ffffffffffffffffffffffffffffffffffffffff1614151561166757600080fd5b600073ffffffffffffffffffffffffffffffffffffffff168173ffffffffffffffffffffffffffffffffffffffff16141515156116a357600080fd5b806005600060405180807f70656e64696e674f776e65720000000000000000000000000000000000000000815250600c01905060405180910390206000191660001916815260200190815260200160002060006101000a81548173ffffffffffffffffffffffffffffffffffffffff021916908373ffffffffffffffffffffffffffffffffffffffff16021790555050565b600082821115151561174357fe5b818303905092915050565b600080828401905083811015151561176257fe5b8091505092915050565b80600360008460405180807f7478436f756e74000000000000000000000000000000000000000000000000008152506007018273ffffffffffffffffffffffffffffffffffffffff1673ffffffffffffffffffffffffffffffffffffffff166c010000000000000000000000000281526014019150506040518091039020600019166000191681526020019081526020016000208190555050505600a165627a7a723058204a6effef29cef49bb53aa60089a7b5ccfcde1b5dde01d8c988ef962020b134550029",
					"opcodes": "PUSH1 0x80 PUSH1 0x40 MSTORE CALLVALUE DUP1 ISZERO PUSH3 0x11 JUMPI PUSH1 0x0 DUP1 REVERT JUMPDEST POP PUSH3 0x2C CALLER PUSH3 0xBE PUSH5 0x100000000 MUL PUSH5 0x100000000 SWAP1 DIV JUMP JUMPDEST PUSH3 0x47 PUSH1 0x5B PUSH3 0x1FF PUSH5 0x100000000 MUL PUSH5 0x100000000 SWAP1 DIV JUMP JUMPDEST PUSH1 0x0 PUSH1 0x9 DUP2 SWAP1 SSTORE POP PUSH1 0x1 PUSH1 0x7 PUSH1 0x0 PUSH1 0x40 MLOAD DUP1 DUP1 PUSH32 0x72735F6D756C746973656E6465725F696E697469616C697A6564000000000000 DUP2 MSTORE POP PUSH1 0x1A ADD SWAP1 POP PUSH1 0x40 MLOAD DUP1 SWAP2 SUB SWAP1 KECCAK256 PUSH1 0x0 NOT AND PUSH1 0x0 NOT AND DUP2 MSTORE PUSH1 0x20 ADD SWAP1 DUP2 MSTORE PUSH1 0x20 ADD PUSH1 0x0 KECCAK256 PUSH1 0x0 PUSH2 0x100 EXP DUP2 SLOAD DUP2 PUSH1 0xFF MUL NOT AND SWAP1 DUP4 ISZERO ISZERO MUL OR SWAP1 SSTORE POP PUSH3 0x333 JUMP JUMPDEST PUSH32 0x8BE0079C531659141344CD1FD0A4F28419497F9722A3DAAFE3B4186F6B6457E0 PUSH3 0xF8 PUSH3 0x2BB PUSH5 0x100000000 MUL PUSH5 0x100000000 SWAP1 DIV JUMP JUMPDEST DUP3 PUSH1 0x40 MLOAD DUP1 DUP4 PUSH20 0xFFFFFFFFFFFFFFFFFFFFFFFFFFFFFFFFFFFFFFFF AND PUSH20 0xFFFFFFFFFFFFFFFFFFFFFFFFFFFFFFFFFFFFFFFF AND DUP2 MSTORE PUSH1 0x20 ADD DUP3 PUSH20 0xFFFFFFFFFFFFFFFFFFFFFFFFFFFFFFFFFFFFFFFF AND PUSH20 0xFFFFFFFFFFFFFFFFFFFFFFFFFFFFFFFFFFFFFFFF AND DUP2 MSTORE PUSH1 0x20 ADD SWAP3 POP POP POP PUSH1 0x40 MLOAD DUP1 SWAP2 SUB SWAP1 LOG1 DUP1 PUSH1 0x5 PUSH1 0x0 PUSH1 0x40 MLOAD DUP1 DUP1 PUSH32 0x6F776E6572000000000000000000000000000000000000000000000000000000 DUP2 MSTORE POP PUSH1 0x5 ADD SWAP1 POP PUSH1 0x40 MLOAD DUP1 SWAP2 SUB SWAP1 KECCAK256 PUSH1 0x0 NOT AND PUSH1 0x0 NOT AND DUP2 MSTORE PUSH1 0x20 ADD SWAP1 DUP2 MSTORE PUSH1 0x20 ADD PUSH1 0x0 KECCAK256 PUSH1 0x0 PUSH2 0x100 EXP DUP2 SLOAD DUP2 PUSH20 0xFFFFFFFFFFFFFFFFFFFFFFFFFFFFFFFFFFFFFFFF MUL NOT AND SWAP1 DUP4 PUSH20 0xFFFFFFFFFFFFFFFFFFFFFFFFFFFFFFFFFFFFFFFF AND MUL OR SWAP1 SSTORE POP POP JUMP JUMPDEST PUSH3 0x218 PUSH3 0x2BB PUSH5 0x100000000 MUL PUSH5 0x100000000 SWAP1 DIV JUMP JUMPDEST PUSH20 0xFFFFFFFFFFFFFFFFFFFFFFFFFFFFFFFFFFFFFFFF AND CALLER PUSH20 0xFFFFFFFFFFFFFFFFFFFFFFFFFFFFFFFFFFFFFFFF AND EQ ISZERO ISZERO PUSH3 0x252 JUMPI PUSH1 0x0 DUP1 REVERT JUMPDEST PUSH1 0x0 DUP2 EQ ISZERO ISZERO ISZERO PUSH3 0x263 JUMPI PUSH1 0x0 DUP1 REVERT JUMPDEST DUP1 PUSH1 0x3 PUSH1 0x0 PUSH1 0x40 MLOAD DUP1 DUP1 PUSH32 0x61727261794C696D697400000000000000000000000000000000000000000000 DUP2 MSTORE POP PUSH1 0xA ADD SWAP1 POP PUSH1 0x40 MLOAD DUP1 SWAP2 SUB SWAP1 KECCAK256 PUSH1 0x0 NOT AND PUSH1 0x0 NOT AND DUP2 MSTORE PUSH1 0x20 ADD SWAP1 DUP2 MSTORE PUSH1 0x20 ADD PUSH1 0x0 KECCAK256 DUP2 SWAP1 SSTORE POP POP JUMP JUMPDEST PUSH1 0x0 PUSH1 0x5 PUSH1 0x0 PUSH1 0x40 MLOAD DUP1 DUP1 PUSH32 0x6F776E6572000000000000000000000000000000000000000000000000000000 DUP2 MSTORE POP PUSH1 0x5 ADD SWAP1 POP PUSH1 0x40 MLOAD DUP1 SWAP2 SUB SWAP1 KECCAK256 PUSH1 0x0 NOT AND PUSH1 0x0 NOT AND DUP2 MSTORE PUSH1 0x20 ADD SWAP1 DUP2 MSTORE PUSH1 0x20 ADD PUSH1 0x0 KECCAK256 PUSH1 0x0 SWAP1 SLOAD SWAP1 PUSH2 0x100 EXP SWAP1 DIV PUSH20 0xFFFFFFFFFFFFFFFFFFFFFFFFFFFFFFFFFFFFFFFF AND SWAP1 POP SWAP1 JUMP JUMPDEST PUSH2 0x1834 DUP1 PUSH3 0x343 PUSH1 0x0 CODECOPY PUSH1 0x0 RETURN STOP PUSH1 0x80 PUSH1 0x40 MSTORE PUSH1 0x4 CALLDATASIZE LT PUSH2 0xF1 JUMPI PUSH1 0x0 CALLDATALOAD PUSH29 0x100000000000000000000000000000000000000000000000000000000 SWAP1 DIV PUSH4 0xFFFFFFFF AND DUP1 PUSH4 0xB66F3F5 EQ PUSH2 0xF3 JUMPI DUP1 PUSH4 0x2DED3227 EQ PUSH2 0x1BC JUMPI DUP1 PUSH4 0x4E71E0C8 EQ PUSH2 0x1D3 JUMPI DUP1 PUSH4 0x54FD4D50 EQ PUSH2 0x1EA JUMPI DUP1 PUSH4 0x5C60DA1B EQ PUSH2 0x27A JUMPI DUP1 PUSH4 0x67272999 EQ PUSH2 0x2D1 JUMPI DUP1 PUSH4 0x6AB35B2E EQ PUSH2 0x2E8 JUMPI DUP1 PUSH4 0x6FDE8202 EQ PUSH2 0x2FF JUMPI DUP1 PUSH4 0x8DA5CB5B EQ PUSH2 0x356 JUMPI DUP1 PUSH4 0xAB883D28 EQ PUSH2 0x3AD JUMPI DUP1 PUSH4 0xB4AE641C EQ PUSH2 0x449 JUMPI DUP1 PUSH4 0xC1258F69 EQ PUSH2 0x474 JUMPI DUP1 PUSH4 0xDDCA3F43 EQ PUSH2 0x4CB JUMPI DUP1 PUSH4 0xDF8DE3E7 EQ PUSH2 0x4F6 JUMPI DUP1 PUSH4 0xE30C3978 EQ PUSH2 0x539 JUMPI DUP1 PUSH4 0xEE8A0A30 EQ PUSH2 0x590 JUMPI DUP1 PUSH4 0xF2FDE38B EQ PUSH2 0x5BD JUMPI JUMPDEST STOP JUMPDEST CALLVALUE DUP1 ISZERO PUSH2 0xFF JUMPI PUSH1 0x0 DUP1 REVERT JUMPDEST POP PUSH2 0x1BA PUSH1 0x4 DUP1 CALLDATASIZE SUB DUP2 ADD SWAP1 DUP1 DUP1 CALLDATALOAD PUSH20 0xFFFFFFFFFFFFFFFFFFFFFFFFFFFFFFFFFFFFFFFF AND SWAP1 PUSH1 0x20 ADD SWAP1 SWAP3 SWAP2 SWAP1 DUP1 CALLDATALOAD SWAP1 PUSH1 0x20 ADD SWAP1 DUP3 ADD DUP1 CALLDATALOAD SWAP1 PUSH1 0x20 ADD SWAP1 DUP1 DUP1 PUSH1 0x20 MUL PUSH1 0x20 ADD PUSH1 0x40 MLOAD SWAP1 DUP2 ADD PUSH1 0x40 MSTORE DUP1 SWAP4 SWAP3 SWAP2 SWAP1 DUP2 DUP2 MSTORE PUSH1 0x20 ADD DUP4 DUP4 PUSH1 0x20 MUL DUP1 DUP3 DUP5 CALLDATACOPY DUP3 ADD SWAP2 POP POP POP POP POP POP SWAP2 SWAP3 SWAP2 SWAP3 SWAP1 DUP1 CALLDATALOAD SWAP1 PUSH1 0x20 ADD SWAP1 DUP3 ADD DUP1 CALLDATALOAD SWAP1 PUSH1 0x20 ADD SWAP1 DUP1 DUP1 PUSH1 0x20 MUL PUSH1 0x20 ADD PUSH1 0x40 MLOAD SWAP1 DUP2 ADD PUSH1 0x40 MSTORE DUP1 SWAP4 SWAP3 SWAP2 SWAP1 DUP2 DUP2 MSTORE PUSH1 0x20 ADD DUP4 DUP4 PUSH1 0x20 MUL DUP1 DUP3 DUP5 CALLDATACOPY DUP3 ADD SWAP2 POP POP POP POP POP POP SWAP2 SWAP3 SWAP2 SWAP3 SWAP1 POP POP POP PUSH2 0x600 JUMP JUMPDEST STOP JUMPDEST CALLVALUE DUP1 ISZERO PUSH2 0x1C8 JUMPI PUSH1 0x0 DUP1 REVERT JUMPDEST POP PUSH2 0x1D1 PUSH2 0x9FC JUMP JUMPDEST STOP JUMPDEST CALLVALUE DUP1 ISZERO PUSH2 0x1DF JUMPI PUSH1 0x0 DUP1 REVERT JUMPDEST POP PUSH2 0x1E8 PUSH2 0xA47 JUMP JUMPDEST STOP JUMPDEST CALLVALUE DUP1 ISZERO PUSH2 0x1F6 JUMPI PUSH1 0x0 DUP1 REVERT JUMPDEST POP PUSH2 0x1FF PUSH2 0xCBE JUMP JUMPDEST PUSH1 0x40 MLOAD DUP1 DUP1 PUSH1 0x20 ADD DUP3 DUP2 SUB DUP3 MSTORE DUP4 DUP2 DUP2 MLOAD DUP2 MSTORE PUSH1 0x20 ADD SWAP2 POP DUP1 MLOAD SWAP1 PUSH1 0x20 ADD SWAP1 DUP1 DUP4 DUP4 PUSH1 0x0 JUMPDEST DUP4 DUP2 LT ISZERO PUSH2 0x23F JUMPI DUP1 DUP3 ADD MLOAD DUP2 DUP5 ADD MSTORE PUSH1 0x20 DUP2 ADD SWAP1 POP PUSH2 0x224 JUMP JUMPDEST POP POP POP POP SWAP1 POP SWAP1 DUP2 ADD SWAP1 PUSH1 0x1F AND DUP1 ISZERO PUSH2 0x26C JUMPI DUP1 DUP3 SUB DUP1 MLOAD PUSH1 0x1 DUP4 PUSH1 0x20 SUB PUSH2 0x100 EXP SUB NOT AND DUP2 MSTORE PUSH1 0x20 ADD SWAP2 POP JUMPDEST POP SWAP3 POP POP POP PUSH1 0x40 MLOAD DUP1 SWAP2 SUB SWAP1 RETURN JUMPDEST CALLVALUE DUP1 ISZERO PUSH2 0x286 JUMPI PUSH1 0x0 DUP1 REVERT JUMPDEST POP PUSH2 0x28F PUSH2 0xD60 JUMP JUMPDEST PUSH1 0x40 MLOAD DUP1 DUP3 PUSH20 0xFFFFFFFFFFFFFFFFFFFFFFFFFFFFFFFFFFFFFFFF AND PUSH20 0xFFFFFFFFFFFFFFFFFFFFFFFFFFFFFFFFFFFFFFFF AND DUP2 MSTORE PUSH1 0x20 ADD SWAP2 POP POP PUSH1 0x40 MLOAD DUP1 SWAP2 SUB SWAP1 RETURN JUMPDEST CALLVALUE DUP1 ISZERO PUSH2 0x2DD JUMPI PUSH1 0x0 DUP1 REVERT JUMPDEST POP PUSH2 0x2E6 PUSH2 0xD8A JUMP JUMPDEST STOP JUMPDEST CALLVALUE DUP1 ISZERO PUSH2 0x2F4 JUMPI PUSH1 0x0 DUP1 REVERT JUMPDEST POP PUSH2 0x2FD PUSH2 0xEBB JUMP JUMPDEST STOP JUMPDEST CALLVALUE DUP1 ISZERO PUSH2 0x30B JUMPI PUSH1 0x0 DUP1 REVERT JUMPDEST POP PUSH2 0x314 PUSH2 0xF06 JUMP JUMPDEST PUSH1 0x40 MLOAD DUP1 DUP3 PUSH20 0xFFFFFFFFFFFFFFFFFFFFFFFFFFFFFFFFFFFFFFFF AND PUSH20 0xFFFFFFFFFFFFFFFFFFFFFFFFFFFFFFFFFFFFFFFF AND DUP2 MSTORE PUSH1 0x20 ADD SWAP2 POP POP PUSH1 0x40 MLOAD DUP1 SWAP2 SUB SWAP1 RETURN JUMPDEST CALLVALUE DUP1 ISZERO PUSH2 0x362 JUMPI PUSH1 0x0 DUP1 REVERT JUMPDEST POP PUSH2 0x36B PUSH2 0xF2F JUMP JUMPDEST PUSH1 0x40 MLOAD DUP1 DUP3 PUSH20 0xFFFFFFFFFFFFFFFFFFFFFFFFFFFFFFFFFFFFFFFF AND PUSH20 0xFFFFFFFFFFFFFFFFFFFFFFFFFFFFFFFFFFFFFFFF AND DUP2 MSTORE PUSH1 0x20 ADD SWAP2 POP POP PUSH1 0x40 MLOAD DUP1 SWAP2 SUB SWAP1 RETURN JUMPDEST PUSH2 0x447 PUSH1 0x4 DUP1 CALLDATASIZE SUB DUP2 ADD SWAP1 DUP1 DUP1 CALLDATALOAD SWAP1 PUSH1 0x20 ADD SWAP1 DUP3 ADD DUP1 CALLDATALOAD SWAP1 PUSH1 0x20 ADD SWAP1 DUP1 DUP1 PUSH1 0x20 MUL PUSH1 0x20 ADD PUSH1 0x40 MLOAD SWAP1 DUP2 ADD PUSH1 0x40 MSTORE DUP1 SWAP4 SWAP3 SWAP2 SWAP1 DUP2 DUP2 MSTORE PUSH1 0x20 ADD DUP4 DUP4 PUSH1 0x20 MUL DUP1 DUP3 DUP5 CALLDATACOPY DUP3 ADD SWAP2 POP POP POP POP POP POP SWAP2 SWAP3 SWAP2 SWAP3 SWAP1 DUP1 CALLDATALOAD SWAP1 PUSH1 0x20 ADD SWAP1 DUP3 ADD DUP1 CALLDATALOAD SWAP1 PUSH1 0x20 ADD SWAP1 DUP1 DUP1 PUSH1 0x20 MUL PUSH1 0x20 ADD PUSH1 0x40 MLOAD SWAP1 DUP2 ADD PUSH1 0x40 MSTORE DUP1 SWAP4 SWAP3 SWAP2 SWAP1 DUP2 DUP2 MSTORE PUSH1 0x20 ADD DUP4 DUP4 PUSH1 0x20 MUL DUP1 DUP3 DUP5 CALLDATACOPY DUP3 ADD SWAP2 POP POP POP POP POP POP SWAP2 SWAP3 SWAP2 SWAP3 SWAP1 POP POP POP PUSH2 0xFA7 JUMP JUMPDEST STOP JUMPDEST CALLVALUE DUP1 ISZERO PUSH2 0x455 JUMPI PUSH1 0x0 DUP1 REVERT JUMPDEST POP PUSH2 0x45E PUSH2 0x115A JUMP JUMPDEST PUSH1 0x40 MLOAD DUP1 DUP3 DUP2 MSTORE PUSH1 0x20 ADD SWAP2 POP POP PUSH1 0x40 MLOAD DUP1 SWAP2 SUB SWAP1 RETURN JUMPDEST CALLVALUE DUP1 ISZERO PUSH2 0x480 JUMPI PUSH1 0x0 DUP1 REVERT JUMPDEST POP PUSH2 0x4B5 PUSH1 0x4 DUP1 CALLDATASIZE SUB DUP2 ADD SWAP1 DUP1 DUP1 CALLDATALOAD PUSH20 0xFFFFFFFFFFFFFFFFFFFFFFFFFFFFFFFFFFFFFFFF AND SWAP1 PUSH1 0x20 ADD SWAP1 SWAP3 SWAP2 SWAP1 POP POP POP PUSH2 0x11B2 JUMP JUMPDEST PUSH1 0x40 MLOAD DUP1 DUP3 DUP2 MSTORE PUSH1 0x20 ADD SWAP2 POP POP PUSH1 0x40 MLOAD DUP1 SWAP2 SUB SWAP1 RETURN JUMPDEST CALLVALUE DUP1 ISZERO PUSH2 0x4D7 JUMPI PUSH1 0x0 DUP1 REVERT JUMPDEST POP PUSH2 0x4E0 PUSH2 0x124F JUMP JUMPDEST PUSH1 0x40 MLOAD DUP1 DUP3 DUP2 MSTORE PUSH1 0x20 ADD SWAP2 POP POP PUSH1 0x40 MLOAD DUP1 SWAP2 SUB SWAP1 RETURN JUMPDEST CALLVALUE DUP1 ISZERO PUSH2 0x502 JUMPI PUSH1 0x0 DUP1 REVERT JUMPDEST POP PUSH2 0x537 PUSH1 0x4 DUP1 CALLDATASIZE SUB DUP2 ADD SWAP1 DUP1 DUP1 CALLDATALOAD PUSH20 0xFFFFFFFFFFFFFFFFFFFFFFFFFFFFFFFFFFFFFFFF AND SWAP1 PUSH1 0x20 ADD SWAP1 SWAP3 SWAP2 SWAP1 POP POP POP PUSH2 0x1255 JUMP JUMPDEST STOP JUMPDEST CALLVALUE DUP1 ISZERO PUSH2 0x545 JUMPI PUSH1 0x0 DUP1 REVERT JUMPDEST POP PUSH2 0x54E PUSH2 0x1505 JUMP JUMPDEST PUSH1 0x40 MLOAD DUP1 DUP3 PUSH20 0xFFFFFFFFFFFFFFFFFFFFFFFFFFFFFFFFFFFFFFFF AND PUSH20 0xFFFFFFFFFFFFFFFFFFFFFFFFFFFFFFFFFFFFFFFF AND DUP2 MSTORE PUSH1 0x20 ADD SWAP2 POP POP PUSH1 0x40 MLOAD DUP1 SWAP2 SUB SWAP1 RETURN JUMPDEST CALLVALUE DUP1 ISZERO PUSH2 0x59C JUMPI PUSH1 0x0 DUP1 REVERT JUMPDEST POP PUSH2 0x5BB PUSH1 0x4 DUP1 CALLDATASIZE SUB DUP2 ADD SWAP1 DUP1 DUP1 CALLDATALOAD SWAP1 PUSH1 0x20 ADD SWAP1 SWAP3 SWAP2 SWAP1 POP POP POP PUSH2 0x157D JUMP JUMPDEST STOP JUMPDEST CALLVALUE DUP1 ISZERO PUSH2 0x5C9 JUMPI PUSH1 0x0 DUP1 REVERT JUMPDEST POP PUSH2 0x5FE PUSH1 0x4 DUP1 CALLDATASIZE SUB DUP2 ADD SWAP1 DUP1 DUP1 CALLDATALOAD PUSH20 0xFFFFFFFFFFFFFFFFFFFFFFFFFFFFFFFFFFFFFFFF AND SWAP1 PUSH1 0x20 ADD SWAP1 SWAP3 SWAP2 SWAP1 POP POP POP PUSH2 0x1626 JUMP JUMPDEST STOP JUMPDEST PUSH1 0x0 DUP1 PUSH1 0x0 DUP1 PUSH1 0x0 DUP1 SWAP5 POP PUSH1 0x0 SWAP4 POP PUSH1 0x0 SWAP3 POP PUSH2 0x61B PUSH2 0x115A JUMP JUMPDEST DUP8 MLOAD GT ISZERO ISZERO ISZERO PUSH2 0x62A JUMPI PUSH1 0x0 DUP1 REVERT JUMPDEST DUP8 SWAP2 POP PUSH1 0x0 SWAP1 POP JUMPDEST DUP7 MLOAD DUP2 PUSH1 0xFF AND LT ISZERO PUSH2 0x84A JUMPI DUP6 DUP2 PUSH1 0xFF AND DUP2 MLOAD DUP2 LT ISZERO ISZERO PUSH2 0x64F JUMPI INVALID JUMPDEST SWAP1 PUSH1 0x20 ADD SWAP1 PUSH1 0x20 MUL ADD MLOAD DUP5 ADD SWAP4 POP PUSH2 0x3E8 PUSH1 0x9 SLOAD DUP8 DUP4 PUSH1 0xFF AND DUP2 MLOAD DUP2 LT ISZERO ISZERO PUSH2 0x674 JUMPI INVALID JUMPDEST SWAP1 PUSH1 0x20 ADD SWAP1 PUSH1 0x20 MUL ADD MLOAD MUL DUP2 ISZERO ISZERO PUSH2 0x688 JUMPI INVALID JUMPDEST DIV SWAP3 POP PUSH2 0x6B8 DUP4 DUP8 DUP4 PUSH1 0xFF AND DUP2 MLOAD DUP2 LT ISZERO ISZERO PUSH2 0x6A0 JUMPI INVALID JUMPDEST SWAP1 PUSH1 0x20 ADD SWAP1 PUSH1 0x20 MUL ADD MLOAD PUSH2 0x1735 SWAP1 SWAP2 SWAP1 PUSH4 0xFFFFFFFF AND JUMP JUMPDEST DUP7 DUP3 PUSH1 0xFF AND DUP2 MLOAD DUP2 LT ISZERO ISZERO PUSH2 0x6C9 JUMPI INVALID JUMPDEST SWAP1 PUSH1 0x20 ADD SWAP1 PUSH1 0x20 MUL ADD DUP2 DUP2 MSTORE POP POP DUP2 PUSH20 0xFFFFFFFFFFFFFFFFFFFFFFFFFFFFFFFFFFFFFFFF AND PUSH4 0x23B872DD CALLER DUP10 DUP5 PUSH1 0xFF AND DUP2 MLOAD DUP2 LT ISZERO ISZERO PUSH2 0x705 JUMPI INVALID JUMPDEST SWAP1 PUSH1 0x20 ADD SWAP1 PUSH1 0x20 MUL ADD MLOAD DUP10 DUP6 PUSH1 0xFF AND DUP2 MLOAD DUP2 LT ISZERO ISZERO PUSH2 0x720 JUMPI INVALID JUMPDEST SWAP1 PUSH1 0x20 ADD SWAP1 PUSH1 0x20 MUL ADD MLOAD PUSH1 0x40 MLOAD DUP5 PUSH4 0xFFFFFFFF AND PUSH29 0x100000000000000000000000000000000000000000000000000000000 MUL DUP2 MSTORE PUSH1 0x4 ADD DUP1 DUP5 PUSH20 0xFFFFFFFFFFFFFFFFFFFFFFFFFFFFFFFFFFFFFFFF AND PUSH20 0xFFFFFFFFFFFFFFFFFFFFFFFFFFFFFFFFFFFFFFFF AND DUP2 MSTORE PUSH1 0x20 ADD DUP4 PUSH20 0xFFFFFFFFFFFFFFFFFFFFFFFFFFFFFFFFFFFFFFFF AND PUSH20 0xFFFFFFFFFFFFFFFFFFFFFFFFFFFFFFFFFFFFFFFF AND DUP2 MSTORE PUSH1 0x20 ADD DUP3 DUP2 MSTORE PUSH1 0x20 ADD SWAP4 POP POP POP POP PUSH1 0x20 PUSH1 0x40 MLOAD DUP1 DUP4 SUB DUP2 PUSH1 0x0 DUP8 DUP1 EXTCODESIZE ISZERO DUP1 ISZERO PUSH2 0x7E2 JUMPI PUSH1 0x0 DUP1 REVERT JUMPDEST POP GAS CALL ISZERO DUP1 ISZERO PUSH2 0x7F6 JUMPI RETURNDATASIZE PUSH1 0x0 DUP1 RETURNDATACOPY RETURNDATASIZE PUSH1 0x0 REVERT JUMPDEST POP POP POP POP PUSH1 0x40 MLOAD RETURNDATASIZE PUSH1 0x20 DUP2 LT ISZERO PUSH2 0x80C JUMPI PUSH1 0x0 DUP1 REVERT JUMPDEST DUP2 ADD SWAP1 DUP1 DUP1 MLOAD SWAP1 PUSH1 0x20 ADD SWAP1 SWAP3 SWAP2 SWAP1 POP POP POP POP DUP6 DUP2 PUSH1 0xFF AND DUP2 MLOAD DUP2 LT ISZERO ISZERO PUSH2 0x82F JUMPI INVALID JUMPDEST SWAP1 PUSH1 0x20 ADD SWAP1 PUSH1 0x20 MUL ADD MLOAD DUP6 ADD SWAP5 POP DUP1 DUP1 PUSH1 0x1 ADD SWAP2 POP POP PUSH2 0x632 JUMP JUMPDEST DUP5 DUP5 SUB SWAP4 POP DUP2 PUSH20 0xFFFFFFFFFFFFFFFFFFFFFFFFFFFFFFFFFFFFFFFF AND PUSH4 0x23B872DD CALLER ADDRESS DUP8 PUSH1 0x40 MLOAD DUP5 PUSH4 0xFFFFFFFF AND PUSH29 0x100000000000000000000000000000000000000000000000000000000 MUL DUP2 MSTORE PUSH1 0x4 ADD DUP1 DUP5 PUSH20 0xFFFFFFFFFFFFFFFFFFFFFFFFFFFFFFFFFFFFFFFF AND PUSH20 0xFFFFFFFFFFFFFFFFFFFFFFFFFFFFFFFFFFFFFFFF AND DUP2 MSTORE PUSH1 0x20 ADD DUP4 PUSH20 0xFFFFFFFFFFFFFFFFFFFFFFFFFFFFFFFFFFFFFFFF AND PUSH20 0xFFFFFFFFFFFFFFFFFFFFFFFFFFFFFFFFFFFFFFFF AND DUP2 MSTORE PUSH1 0x20 ADD DUP3 DUP2 MSTORE PUSH1 0x20 ADD SWAP4 POP POP POP POP PUSH1 0x20 PUSH1 0x40 MLOAD DUP1 DUP4 SUB DUP2 PUSH1 0x0 DUP8 DUP1 EXTCODESIZE ISZERO DUP1 ISZERO PUSH2 0x926 JUMPI PUSH1 0x0 DUP1 REVERT JUMPDEST POP GAS CALL ISZERO DUP1 ISZERO PUSH2 0x93A JUMPI RETURNDATASIZE PUSH1 0x0 DUP1 RETURNDATACOPY RETURNDATASIZE PUSH1 0x0 REVERT JUMPDEST POP POP POP POP PUSH1 0x40 MLOAD RETURNDATASIZE PUSH1 0x20 DUP2 LT ISZERO PUSH2 0x950 JUMPI PUSH1 0x0 DUP1 REVERT JUMPDEST DUP2 ADD SWAP1 DUP1 DUP1 MLOAD SWAP1 PUSH1 0x20 ADD SWAP1 SWAP3 SWAP2 SWAP1 POP POP POP POP PUSH2 0x987 CALLER PUSH2 0x982 PUSH1 0x1 PUSH2 0x974 CALLER PUSH2 0x11B2 JUMP JUMPDEST PUSH2 0x174E SWAP1 SWAP2 SWAP1 PUSH4 0xFFFFFFFF AND JUMP JUMPDEST PUSH2 0x176C JUMP JUMPDEST PUSH32 0x4AFD2CE457D973046BD54F5D7D36368546DA08B88BE1BCA8AE50E32B451DA17 DUP6 DUP10 PUSH1 0x40 MLOAD DUP1 DUP4 DUP2 MSTORE PUSH1 0x20 ADD DUP3 PUSH20 0xFFFFFFFFFFFFFFFFFFFFFFFFFFFFFFFFFFFFFFFF AND PUSH20 0xFFFFFFFFFFFFFFFFFFFFFFFFFFFFFFFFFFFFFFFF AND DUP2 MSTORE PUSH1 0x20 ADD SWAP3 POP POP POP PUSH1 0x40 MLOAD DUP1 SWAP2 SUB SWAP1 LOG1 POP POP POP POP POP POP POP POP JUMP JUMPDEST PUSH2 0xA04 PUSH2 0xF2F JUMP JUMPDEST PUSH20 0xFFFFFFFFFFFFFFFFFFFFFFFFFFFFFFFFFFFFFFFF AND CALLER PUSH20 0xFFFFFFFFFFFFFFFFFFFFFFFFFFFFFFFFFFFFFFFF AND EQ ISZERO ISZERO PUSH2 0xA3D JUMPI PUSH1 0x0 DUP1 REVERT JUMPDEST PUSH1 0x5 PUSH1 0x9 DUP2 SWAP1 SSTORE POP JUMP JUMPDEST PUSH2 0xA4F PUSH2 0x1505 JUMP JUMPDEST PUSH20 0xFFFFFFFFFFFFFFFFFFFFFFFFFFFFFFFFFFFFFFFF AND CALLER PUSH20 0xFFFFFFFFFFFFFFFFFFFFFFFFFFFFFFFFFFFFFFFF AND EQ ISZERO ISZERO PUSH2 0xA88 JUMPI PUSH1 0x0 DUP1 REVERT JUMPDEST PUSH32 0x8BE0079C531659141344CD1FD0A4F28419497F9722A3DAAFE3B4186F6B6457E0 PUSH2 0xAB1 PUSH2 0xF2F JUMP JUMPDEST PUSH2 0xAB9 PUSH2 0x1505 JUMP JUMPDEST PUSH1 0x40 MLOAD DUP1 DUP4 PUSH20 0xFFFFFFFFFFFFFFFFFFFFFFFFFFFFFFFFFFFFFFFF AND PUSH20 0xFFFFFFFFFFFFFFFFFFFFFFFFFFFFFFFFFFFFFFFF AND DUP2 MSTORE PUSH1 0x20 ADD DUP3 PUSH20 0xFFFFFFFFFFFFFFFFFFFFFFFFFFFFFFFFFFFFFFFF AND PUSH20 0xFFFFFFFFFFFFFFFFFFFFFFFFFFFFFFFFFFFFFFFF AND DUP2 MSTORE PUSH1 0x20 ADD SWAP3 POP POP POP PUSH1 0x40 MLOAD DUP1 SWAP2 SUB SWAP1 LOG1 PUSH1 0x5 PUSH1 0x0 PUSH1 0x40 MLOAD DUP1 DUP1 PUSH32 0x70656E64696E674F776E65720000000000000000000000000000000000000000 DUP2 MSTORE POP PUSH1 0xC ADD SWAP1 POP PUSH1 0x40 MLOAD DUP1 SWAP2 SUB SWAP1 KECCAK256 PUSH1 0x0 NOT AND PUSH1 0x0 NOT AND DUP2 MSTORE PUSH1 0x20 ADD SWAP1 DUP2 MSTORE PUSH1 0x20 ADD PUSH1 0x0 KECCAK256 PUSH1 0x0 SWAP1 SLOAD SWAP1 PUSH2 0x100 EXP SWAP1 DIV PUSH20 0xFFFFFFFFFFFFFFFFFFFFFFFFFFFFFFFFFFFFFFFF AND PUSH1 0x5 PUSH1 0x0 PUSH1 0x40 MLOAD DUP1 DUP1 PUSH32 0x6F776E6572000000000000000000000000000000000000000000000000000000 DUP2 MSTORE POP PUSH1 0x5 ADD SWAP1 POP PUSH1 0x40 MLOAD DUP1 SWAP2 SUB SWAP1 KECCAK256 PUSH1 0x0 NOT AND PUSH1 0x0 NOT AND DUP2 MSTORE PUSH1 0x20 ADD SWAP1 DUP2 MSTORE PUSH1 0x20 ADD PUSH1 0x0 KECCAK256 PUSH1 0x0 PUSH2 0x100 EXP DUP2 SLOAD DUP2 PUSH20 0xFFFFFFFFFFFFFFFFFFFFFFFFFFFFFFFFFFFFFFFF MUL NOT AND SWAP1 DUP4 PUSH20 0xFFFFFFFFFFFFFFFFFFFFFFFFFFFFFFFFFFFFFFFF AND MUL OR SWAP1 SSTORE POP PUSH1 0x0 PUSH1 0x5 PUSH1 0x0 PUSH1 0x40 MLOAD DUP1 DUP1 PUSH32 0x70656E64696E674F776E65720000000000000000000000000000000000000000 DUP2 MSTORE POP PUSH1 0xC ADD SWAP1 POP PUSH1 0x40 MLOAD DUP1 SWAP2 SUB SWAP1 KECCAK256 PUSH1 0x0 NOT AND PUSH1 0x0 NOT AND DUP2 MSTORE PUSH1 0x20 ADD SWAP1 DUP2 MSTORE PUSH1 0x20 ADD PUSH1 0x0 KECCAK256 PUSH1 0x0 PUSH2 0x100 EXP DUP2 SLOAD DUP2 PUSH20 0xFFFFFFFFFFFFFFFFFFFFFFFFFFFFFFFFFFFFFFFF MUL NOT AND SWAP1 DUP4 PUSH20 0xFFFFFFFFFFFFFFFFFFFFFFFFFFFFFFFFFFFFFFFF AND MUL OR SWAP1 SSTORE POP JUMP JUMPDEST PUSH1 0x60 PUSH1 0x1 DUP1 SLOAD PUSH1 0x1 DUP2 PUSH1 0x1 AND ISZERO PUSH2 0x100 MUL SUB AND PUSH1 0x2 SWAP1 DIV DUP1 PUSH1 0x1F ADD PUSH1 0x20 DUP1 SWAP2 DIV MUL PUSH1 0x20 ADD PUSH1 0x40 MLOAD SWAP1 DUP2 ADD PUSH1 0x40 MSTORE DUP1 SWAP3 SWAP2 SWAP1 DUP2 DUP2 MSTORE PUSH1 0x20 ADD DUP3 DUP1 SLOAD PUSH1 0x1 DUP2 PUSH1 0x1 AND ISZERO PUSH2 0x100 MUL SUB AND PUSH1 0x2 SWAP1 DIV DUP1 ISZERO PUSH2 0xD56 JUMPI DUP1 PUSH1 0x1F LT PUSH2 0xD2B JUMPI PUSH2 0x100 DUP1 DUP4 SLOAD DIV MUL DUP4 MSTORE SWAP2 PUSH1 0x20 ADD SWAP2 PUSH2 0xD56 JUMP JUMPDEST DUP3 ADD SWAP2 SWAP1 PUSH1 0x0 MSTORE PUSH1 0x20 PUSH1 0x0 KECCAK256 SWAP1 JUMPDEST DUP2 SLOAD DUP2 MSTORE SWAP1 PUSH1 0x1 ADD SWAP1 PUSH1 0x20 ADD DUP1 DUP4 GT PUSH2 0xD39 JUMPI DUP3 SWAP1 SUB PUSH1 0x1F AND DUP3 ADD SWAP2 JUMPDEST POP POP POP POP POP SWAP1 POP SWAP1 JUMP JUMPDEST PUSH1 0x0 PUSH1 0x2 PUSH1 0x0 SWAP1 SLOAD SWAP1 PUSH2 0x100 EXP SWAP1 DIV PUSH20 0xFFFFFFFFFFFFFFFFFFFFFFFFFFFFFFFFFFFFFFFF AND SWAP1 POP SWAP1 JUMP JUMPDEST PUSH2 0xD92 PUSH2 0xF2F JUMP JUMPDEST PUSH20 0xFFFFFFFFFFFFFFFFFFFFFFFFFFFFFFFFFFFFFFFF AND CALLER PUSH20 0xFFFFFFFFFFFFFFFFFFFFFFFFFFFFFFFFFFFFFFFF AND EQ ISZERO ISZERO PUSH2 0xDCB JUMPI PUSH1 0x0 DUP1 REVERT JUMPDEST PUSH2 0xDD3 PUSH2 0xF2F JUMP JUMPDEST PUSH20 0xFFFFFFFFFFFFFFFFFFFFFFFFFFFFFFFFFFFFFFFF AND PUSH2 0x8FC ADDRESS PUSH20 0xFFFFFFFFFFFFFFFFFFFFFFFFFFFFFFFFFFFFFFFF AND BALANCE SWAP1 DUP2 ISZERO MUL SWAP1 PUSH1 0x40 MLOAD PUSH1 0x0 PUSH1 0x40 MLOAD DUP1 DUP4 SUB DUP2 DUP6 DUP9 DUP9 CALL SWAP4 POP POP POP POP ISZERO DUP1 ISZERO PUSH2 0xE2F JUMPI RETURNDATASIZE PUSH1 0x0 DUP1 RETURNDATACOPY RETURNDATASIZE PUSH1 0x0 REVERT JUMPDEST POP PUSH32 0x9F413F0F451C24EDEEC8F50838056A8D47C9D8EA0226E5A536392F677A310AD5 PUSH2 0xE59 PUSH2 0xF2F JUMP JUMPDEST ADDRESS PUSH20 0xFFFFFFFFFFFFFFFFFFFFFFFFFFFFFFFFFFFFFFFF AND BALANCE PUSH1 0x40 MLOAD DUP1 DUP4 PUSH20 0xFFFFFFFFFFFFFFFFFFFFFFFFFFFFFFFFFFFFFFFF AND PUSH20 0xFFFFFFFFFFFFFFFFFFFFFFFFFFFFFFFFFFFFFFFF AND DUP2 MSTORE PUSH1 0x20 ADD DUP3 DUP2 MSTORE PUSH1 0x20 ADD SWAP3 POP POP POP PUSH1 0x40 MLOAD DUP1 SWAP2 SUB SWAP1 LOG1 JUMP JUMPDEST PUSH2 0xEC3 PUSH2 0xF2F JUMP JUMPDEST PUSH20 0xFFFFFFFFFFFFFFFFFFFFFFFFFFFFFFFFFFFFFFFF AND CALLER PUSH20 0xFFFFFFFFFFFFFFFFFFFFFFFFFFFFFFFFFFFFFFFF AND EQ ISZERO ISZERO PUSH2 0xEFC JUMPI PUSH1 0x0 DUP1 REVERT JUMPDEST PUSH1 0x0 PUSH1 0x9 DUP2 SWAP1 SSTORE POP JUMP JUMPDEST PUSH1 0x0 DUP1 PUSH1 0x0 SWAP1 SLOAD SWAP1 PUSH2 0x100 EXP SWAP1 DIV PUSH20 0xFFFFFFFFFFFFFFFFFFFFFFFFFFFFFFFFFFFFFFFF AND SWAP1 POP SWAP1 JUMP JUMPDEST PUSH1 0x0 PUSH1 0x5 PUSH1 0x0 PUSH1 0x40 MLOAD DUP1 DUP1 PUSH32 0x6F776E6572000000000000000000000000000000000000000000000000000000 DUP2 MSTORE POP PUSH1 0x5 ADD SWAP1 POP PUSH1 0x40 MLOAD DUP1 SWAP2 SUB SWAP1 KECCAK256 PUSH1 0x0 NOT AND PUSH1 0x0 NOT AND DUP2 MSTORE PUSH1 0x20 ADD SWAP1 DUP2 MSTORE PUSH1 0x20 ADD PUSH1 0x0 KECCAK256 PUSH1 0x0 SWAP1 SLOAD SWAP1 PUSH2 0x100 EXP SWAP1 DIV PUSH20 0xFFFFFFFFFFFFFFFFFFFFFFFFFFFFFFFFFFFFFFFF AND SWAP1 POP SWAP1 JUMP JUMPDEST PUSH1 0x0 DUP1 PUSH2 0xFB2 PUSH2 0x115A JUMP JUMPDEST DUP5 MLOAD GT ISZERO ISZERO ISZERO PUSH2 0xFC1 JUMPI PUSH1 0x0 DUP1 REVERT JUMPDEST PUSH1 0x0 SWAP1 POP JUMPDEST DUP4 MLOAD DUP2 LT ISZERO PUSH2 0x10C2 JUMPI PUSH2 0x3E8 PUSH1 0x9 SLOAD DUP5 DUP4 DUP2 MLOAD DUP2 LT ISZERO ISZERO PUSH2 0xFE3 JUMPI INVALID JUMPDEST SWAP1 PUSH1 0x20 ADD SWAP1 PUSH1 0x20 MUL ADD MLOAD MUL DUP2 ISZERO ISZERO PUSH2 0xFF7 JUMPI INVALID JUMPDEST DIV SWAP2 POP PUSH2 0x1024 DUP3 DUP5 DUP4 DUP2 MLOAD DUP2 LT ISZERO ISZERO PUSH2 0x100C JUMPI INVALID JUMPDEST SWAP1 PUSH1 0x20 ADD SWAP1 PUSH1 0x20 MUL ADD MLOAD PUSH2 0x1735 SWAP1 SWAP2 SWAP1 PUSH4 0xFFFFFFFF AND JUMP JUMPDEST DUP4 DUP3 DUP2 MLOAD DUP2 LT ISZERO ISZERO PUSH2 0x1032 JUMPI INVALID JUMPDEST SWAP1 PUSH1 0x20 ADD SWAP1 PUSH1 0x20 MUL ADD DUP2 DUP2 MSTORE POP POP DUP4 DUP2 DUP2 MLOAD DUP2 LT ISZERO ISZERO PUSH2 0x104E JUMPI INVALID JUMPDEST SWAP1 PUSH1 0x20 ADD SWAP1 PUSH1 0x20 MUL ADD MLOAD PUSH20 0xFFFFFFFFFFFFFFFFFFFFFFFFFFFFFFFFFFFFFFFF AND PUSH2 0x8FC DUP5 DUP4 DUP2 MLOAD DUP2 LT ISZERO ISZERO PUSH2 0x107F JUMPI INVALID JUMPDEST SWAP1 PUSH1 0x20 ADD SWAP1 PUSH1 0x20 MUL ADD MLOAD SWAP1 DUP2 ISZERO MUL SWAP1 PUSH1 0x40 MLOAD PUSH1 0x0 PUSH1 0x40 MLOAD DUP1 DUP4 SUB DUP2 DUP6 DUP9 DUP9 CALL SWAP4 POP POP POP POP ISZERO DUP1 ISZERO PUSH2 0x10B4 JUMPI RETURNDATASIZE PUSH1 0x0 DUP1 RETURNDATACOPY RETURNDATASIZE PUSH1 0x0 REVERT JUMPDEST POP DUP1 DUP1 PUSH1 0x1 ADD SWAP2 POP POP PUSH2 0xFC6 JUMP JUMPDEST PUSH2 0x10E7 CALLER PUSH2 0x10E2 PUSH1 0x1 PUSH2 0x10D4 CALLER PUSH2 0x11B2 JUMP JUMPDEST PUSH2 0x174E SWAP1 SWAP2 SWAP1 PUSH4 0xFFFFFFFF AND JUMP JUMPDEST PUSH2 0x176C JUMP JUMPDEST PUSH32 0x4AFD2CE457D973046BD54F5D7D36368546DA08B88BE1BCA8AE50E32B451DA17 CALLVALUE PUSH2 0xBEEF PUSH1 0x40 MLOAD DUP1 DUP4 DUP2 MSTORE PUSH1 0x20 ADD DUP3 PUSH20 0xFFFFFFFFFFFFFFFFFFFFFFFFFFFFFFFFFFFFFFFF AND PUSH20 0xFFFFFFFFFFFFFFFFFFFFFFFFFFFFFFFFFFFFFFFF AND DUP2 MSTORE PUSH1 0x20 ADD SWAP3 POP POP POP PUSH1 0x40 MLOAD DUP1 SWAP2 SUB SWAP1 LOG1 POP POP POP POP JUMP JUMPDEST PUSH1 0x0 PUSH1 0x3 PUSH1 0x0 PUSH1 0x40 MLOAD DUP1 DUP1 PUSH32 0x61727261794C696D697400000000000000000000000000000000000000000000 DUP2 MSTORE POP PUSH1 0xA ADD SWAP1 POP PUSH1 0x40 MLOAD DUP1 SWAP2 SUB SWAP1 KECCAK256 PUSH1 0x0 NOT AND PUSH1 0x0 NOT AND DUP2 MSTORE PUSH1 0x20 ADD SWAP1 DUP2 MSTORE PUSH1 0x20 ADD PUSH1 0x0 KECCAK256 SLOAD SWAP1 POP SWAP1 JUMP JUMPDEST PUSH1 0x0 PUSH1 0x3 PUSH1 0x0 DUP4 PUSH1 0x40 MLOAD DUP1 DUP1 PUSH32 0x7478436F756E7400000000000000000000000000000000000000000000000000 DUP2 MSTORE POP PUSH1 0x7 ADD DUP3 PUSH20 0xFFFFFFFFFFFFFFFFFFFFFFFFFFFFFFFFFFFFFFFF AND PUSH20 0xFFFFFFFFFFFFFFFFFFFFFFFFFFFFFFFFFFFFFFFF AND PUSH13 0x1000000000000000000000000 MUL DUP2 MSTORE PUSH1 0x14 ADD SWAP2 POP POP PUSH1 0x40 MLOAD DUP1 SWAP2 SUB SWAP1 KECCAK256 PUSH1 0x0 NOT AND PUSH1 0x0 NOT AND DUP2 MSTORE PUSH1 0x20 ADD SWAP1 DUP2 MSTORE PUSH1 0x20 ADD PUSH1 0x0 KECCAK256 SLOAD SWAP1 POP SWAP2 SWAP1 POP JUMP JUMPDEST PUSH1 0x9 SLOAD DUP2 JUMP JUMPDEST PUSH1 0x0 DUP1 PUSH2 0x1260 PUSH2 0xF2F JUMP JUMPDEST PUSH20 0xFFFFFFFFFFFFFFFFFFFFFFFFFFFFFFFFFFFFFFFF AND CALLER PUSH20 0xFFFFFFFFFFFFFFFFFFFFFFFFFFFFFFFFFFFFFFFF AND EQ ISZERO ISZERO PUSH2 0x1299 JUMPI PUSH1 0x0 DUP1 REVERT JUMPDEST DUP3 SWAP2 POP DUP2 PUSH20 0xFFFFFFFFFFFFFFFFFFFFFFFFFFFFFFFFFFFFFFFF AND PUSH4 0x70A08231 ADDRESS PUSH1 0x40 MLOAD DUP3 PUSH4 0xFFFFFFFF AND PUSH29 0x100000000000000000000000000000000000000000000000000000000 MUL DUP2 MSTORE PUSH1 0x4 ADD DUP1 DUP3 PUSH20 0xFFFFFFFFFFFFFFFFFFFFFFFFFFFFFFFFFFFFFFFF AND PUSH20 0xFFFFFFFFFFFFFFFFFFFFFFFFFFFFFFFFFFFFFFFF AND DUP2 MSTORE PUSH1 0x20 ADD SWAP2 POP POP PUSH1 0x20 PUSH1 0x40 MLOAD DUP1 DUP4 SUB DUP2 PUSH1 0x0 DUP8 DUP1 EXTCODESIZE ISZERO DUP1 ISZERO PUSH2 0x1337 JUMPI PUSH1 0x0 DUP1 REVERT JUMPDEST POP GAS CALL ISZERO DUP1 ISZERO PUSH2 0x134B JUMPI RETURNDATASIZE PUSH1 0x0 DUP1 RETURNDATACOPY RETURNDATASIZE PUSH1 0x0 REVERT JUMPDEST POP POP POP POP PUSH1 0x40 MLOAD RETURNDATASIZE PUSH1 0x20 DUP2 LT ISZERO PUSH2 0x1361 JUMPI PUSH1 0x0 DUP1 REVERT JUMPDEST DUP2 ADD SWAP1 DUP1 DUP1 MLOAD SWAP1 PUSH1 0x20 ADD SWAP1 SWAP3 SWAP2 SWAP1 POP POP POP SWAP1 POP DUP2 PUSH20 0xFFFFFFFFFFFFFFFFFFFFFFFFFFFFFFFFFFFFFFFF AND PUSH4 0xA9059CBB PUSH2 0x1398 PUSH2 0xF2F JUMP JUMPDEST DUP4 PUSH1 0x40 MLOAD DUP4 PUSH4 0xFFFFFFFF AND PUSH29 0x100000000000000000000000000000000000000000000000000000000 MUL DUP2 MSTORE PUSH1 0x4 ADD DUP1 DUP4 PUSH20 0xFFFFFFFFFFFFFFFFFFFFFFFFFFFFFFFFFFFFFFFF AND PUSH20 0xFFFFFFFFFFFFFFFFFFFFFFFFFFFFFFFFFFFFFFFF AND DUP2 MSTORE PUSH1 0x20 ADD DUP3 DUP2 MSTORE PUSH1 0x20 ADD SWAP3 POP POP POP PUSH1 0x20 PUSH1 0x40 MLOAD DUP1 DUP4 SUB DUP2 PUSH1 0x0 DUP8 DUP1 EXTCODESIZE ISZERO DUP1 ISZERO PUSH2 0x141E JUMPI PUSH1 0x0 DUP1 REVERT JUMPDEST POP GAS CALL ISZERO DUP1 ISZERO PUSH2 0x1432 JUMPI RETURNDATASIZE PUSH1 0x0 DUP1 RETURNDATACOPY RETURNDATASIZE PUSH1 0x0 REVERT JUMPDEST POP POP POP POP PUSH1 0x40 MLOAD RETURNDATASIZE PUSH1 0x20 DUP2 LT ISZERO PUSH2 0x1448 JUMPI PUSH1 0x0 DUP1 REVERT JUMPDEST DUP2 ADD SWAP1 DUP1 DUP1 MLOAD SWAP1 PUSH1 0x20 ADD SWAP1 SWAP3 SWAP2 SWAP1 POP POP POP POP PUSH32 0xF931EDB47C50B4B4104C187B5814A9AEF5F709E17E2ECF9617E860CACADE929C DUP4 PUSH2 0x1484 PUSH2 0xF2F JUMP JUMPDEST DUP4 PUSH1 0x40 MLOAD DUP1 DUP5 PUSH20 0xFFFFFFFFFFFFFFFFFFFFFFFFFFFFFFFFFFFFFFFF AND PUSH20 0xFFFFFFFFFFFFFFFFFFFFFFFFFFFFFFFFFFFFFFFF AND DUP2 MSTORE PUSH1 0x20 ADD DUP4 PUSH20 0xFFFFFFFFFFFFFFFFFFFFFFFFFFFFFFFFFFFFFFFF AND PUSH20 0xFFFFFFFFFFFFFFFFFFFFFFFFFFFFFFFFFFFFFFFF AND DUP2 MSTORE PUSH1 0x20 ADD DUP3 DUP2 MSTORE PUSH1 0x20 ADD SWAP4 POP POP POP POP PUSH1 0x40 MLOAD DUP1 SWAP2 SUB SWAP1 LOG1 POP POP POP JUMP JUMPDEST PUSH1 0x0 PUSH1 0x5 PUSH1 0x0 PUSH1 0x40 MLOAD DUP1 DUP1 PUSH32 0x70656E64696E674F776E65720000000000000000000000000000000000000000 DUP2 MSTORE POP PUSH1 0xC ADD SWAP1 POP PUSH1 0x40 MLOAD DUP1 SWAP2 SUB SWAP1 KECCAK256 PUSH1 0x0 NOT AND PUSH1 0x0 NOT AND DUP2 MSTORE PUSH1 0x20 ADD SWAP1 DUP2 MSTORE PUSH1 0x20 ADD PUSH1 0x0 KECCAK256 PUSH1 0x0 SWAP1 SLOAD SWAP1 PUSH2 0x100 EXP SWAP1 DIV PUSH20 0xFFFFFFFFFFFFFFFFFFFFFFFFFFFFFFFFFFFFFFFF AND SWAP1 POP SWAP1 JUMP JUMPDEST PUSH2 0x1585 PUSH2 0xF2F JUMP JUMPDEST PUSH20 0xFFFFFFFFFFFFFFFFFFFFFFFFFFFFFFFFFFFFFFFF AND CALLER PUSH20 0xFFFFFFFFFFFFFFFFFFFFFFFFFFFFFFFFFFFFFFFF AND EQ ISZERO ISZERO PUSH2 0x15BE JUMPI PUSH1 0x0 DUP1 REVERT JUMPDEST PUSH1 0x0 DUP2 EQ ISZERO ISZERO ISZERO PUSH2 0x15CE JUMPI PUSH1 0x0 DUP1 REVERT JUMPDEST DUP1 PUSH1 0x3 PUSH1 0x0 PUSH1 0x40 MLOAD DUP1 DUP1 PUSH32 0x61727261794C696D697400000000000000000000000000000000000000000000 DUP2 MSTORE POP PUSH1 0xA ADD SWAP1 POP PUSH1 0x40 MLOAD DUP1 SWAP2 SUB SWAP1 KECCAK256 PUSH1 0x0 NOT AND PUSH1 0x0 NOT AND DUP2 MSTORE PUSH1 0x20 ADD SWAP1 DUP2 MSTORE PUSH1 0x20 ADD PUSH1 0x0 KECCAK256 DUP2 SWAP1 SSTORE POP POP JUMP JUMPDEST PUSH2 0x162E PUSH2 0xF2F JUMP JUMPDEST PUSH20 0xFFFFFFFFFFFFFFFFFFFFFFFFFFFFFFFFFFFFFFFF AND CALLER PUSH20 0xFFFFFFFFFFFFFFFFFFFFFFFFFFFFFFFFFFFFFFFF AND EQ ISZERO ISZERO PUSH2 0x1667 JUMPI PUSH1 0x0 DUP1 REVERT JUMPDEST PUSH1 0x0 PUSH20 0xFFFFFFFFFFFFFFFFFFFFFFFFFFFFFFFFFFFFFFFF AND DUP2 PUSH20 0xFFFFFFFFFFFFFFFFFFFFFFFFFFFFFFFFFFFFFFFF AND EQ ISZERO ISZERO ISZERO PUSH2 0x16A3 JUMPI PUSH1 0x0 DUP1 REVERT JUMPDEST DUP1 PUSH1 0x5 PUSH1 0x0 PUSH1 0x40 MLOAD DUP1 DUP1 PUSH32 0x70656E64696E674F776E65720000000000000000000000000000000000000000 DUP2 MSTORE POP PUSH1 0xC ADD SWAP1 POP PUSH1 0x40 MLOAD DUP1 SWAP2 SUB SWAP1 KECCAK256 PUSH1 0x0 NOT AND PUSH1 0x0 NOT AND DUP2 MSTORE PUSH1 0x20 ADD SWAP1 DUP2 MSTORE PUSH1 0x20 ADD PUSH1 0x0 KECCAK256 PUSH1 0x0 PUSH2 0x100 EXP DUP2 SLOAD DUP2 PUSH20 0xFFFFFFFFFFFFFFFFFFFFFFFFFFFFFFFFFFFFFFFF MUL NOT AND SWAP1 DUP4 PUSH20 0xFFFFFFFFFFFFFFFFFFFFFFFFFFFFFFFFFFFFFFFF AND MUL OR SWAP1 SSTORE POP POP JUMP JUMPDEST PUSH1 0x0 DUP3 DUP3 GT ISZERO ISZERO ISZERO PUSH2 0x1743 JUMPI INVALID JUMPDEST DUP2 DUP4 SUB SWAP1 POP SWAP3 SWAP2 POP POP JUMP JUMPDEST PUSH1 0x0 DUP1 DUP3 DUP5 ADD SWAP1 POP DUP4 DUP2 LT ISZERO ISZERO ISZERO PUSH2 0x1762 JUMPI INVALID JUMPDEST DUP1 SWAP2 POP POP SWAP3 SWAP2 POP POP JUMP JUMPDEST DUP1 PUSH1 0x3 PUSH1 0x0 DUP5 PUSH1 0x40 MLOAD DUP1 DUP1 PUSH32 0x7478436F756E7400000000000000000000000000000000000000000000000000 DUP2 MSTORE POP PUSH1 0x7 ADD DUP3 PUSH20 0xFFFFFFFFFFFFFFFFFFFFFFFFFFFFFFFFFFFFFFFF AND PUSH20 0xFFFFFFFFFFFFFFFFFFFFFFFFFFFFFFFFFFFFFFFF AND PUSH13 0x1000000000000000000000000 MUL DUP2 MSTORE PUSH1 0x14 ADD SWAP2 POP POP PUSH1 0x40 MLOAD DUP1 SWAP2 SUB SWAP1 KECCAK256 PUSH1 0x0 NOT AND PUSH1 0x0 NOT AND DUP2 MSTORE PUSH1 0x20 ADD SWAP1 DUP2 MSTORE PUSH1 0x20 ADD PUSH1 0x0 KECCAK256 DUP2 SWAP1 SSTORE POP POP POP JUMP STOP LOG1 PUSH6 0x627A7A723058 KECCAK256 0x4a PUSH15 0xFFEF29CEF49BB53AA60089A7B5CCFC 0xde SHL 0x5d 0xde ADD 0xd8 0xc9 DUP9 0xef SWAP7 KECCAK256 KECCAK256 0xb1 CALLVALUE SSTORE STOP 0x29 "
				},
				"gasEstimates": {
					"creation": {
						"codeDepositCost": "1239200",
						"executionCost": "infinite",
						"totalCost": "infinite"
					},
					"external": {
						"": "437",
						"arrayLimit()": "803",
						"claimETH()": "infinite",
						"claimOwnership()": "infinite",
						"claimTokens(address)": "infinite",
						"fee()": "658",
						"implementation()": "538",
						"multisendEther(address[],uint256[])": "infinite",
						"multisendToken(address,address[],uint256[])": "infinite",
						"owner()": "807",
						"pendingOwner()": "939",
						"setArrayLimit(uint256)": "21246",
						"setFee()": "20667",
						"transferOwnership(address)": "21539",
						"txCount(address)": "935",
						"unsetFee()": "5777",
						"upgradeabilityOwner()": "604",
						"version()": "infinite"
					},
					"internal": {
						"setTxCount(address,uint256)": "infinite"
					}
				},
				"methodIdentifiers": {
					"arrayLimit()": "b4ae641c",
					"claimETH()": "67272999",
					"claimOwnership()": "4e71e0c8",
					"claimTokens(address)": "df8de3e7",
					"fee()": "ddca3f43",
					"implementation()": "5c60da1b",
					"multisendEther(address[],uint256[])": "ab883d28",
					"multisendToken(address,address[],uint256[])": "0b66f3f5",
					"owner()": "8da5cb5b",
					"pendingOwner()": "e30c3978",
					"setArrayLimit(uint256)": "ee8a0a30",
					"setFee()": "2ded3227",
					"transferOwnership(address)": "f2fde38b",
					"txCount(address)": "c1258f69",
					"unsetFee()": "6ab35b2e",
					"upgradeabilityOwner()": "6fde8202",
					"version()": "54fd4d50"
				}
			},
			"userdoc": {
				"methods": {}
			}
		}
	}
}